:020000040000FA
:100000000C9462000C948A000C948A000C948A0070
:100010000C948A000C948A000C948A000C948A0038
:100020000C948A000C948A000C948A000C948A0028
:100030000C948A000C948A000C948A000C948A0018
:100040000C9437080C948A000C9405080C94DF0774
:100050000C948A000C948A000C948A000C948A00F8
:100060000C9481080C948A000000000024002700F2
:100070002A0000000000250028002B0000000000DE
:1000800023002600290004040404040404040202DA
:100090000202020203030303030301020408102007
:1000A0004080010204081020010204081020000012
:1000B0000008000201000003040700000000000027
:1000C0000000C60911241FBECFEFD8E0DEBFCDBFB0
:1000D00011E0A0E0B1E0E6E8F8E202C005900D9280
:1000E000AE39B107D9F724E0AEE9B1E001C01D9205
:1000F000AC32B207E1F710E0C2E6D0E004C02197CD
:10010000FE010E946311C136D107C9F70E94510B4D
:100110000C9441140C94000008950895AF92BF927E
:10012000CF92DF92EF92FF920F931F93CF93DF93C3
:100130006C017B018B01040F151FEB015E01AE18F2
:10014000BF08C017D10759F06991D601ED91FC9114
:100150000190F081E02DC6010995892B79F7C50141
:10016000DF91CF911F910F91FF90EF90DF90CF9093
:10017000BF90AF900895FC01538D448D252F30E042
:10018000842F90E0821B930B541710F0CF960895A4
:1001900001970895FC01918D828D981761F0A28DD1
:1001A000AE0FBF2FB11D5D968C91928D9F5F9F7397
:1001B000928F90E008958FEF9FEF0895FC01918D4D
:1001C000828D981731F0828DE80FF11D858D90E0BA
:1001D00008958FEF9FEF0895FC01918D228D892F57
:1001E00090E0805C9F4F821B91098F73992708953F
:1001F0008DE692E00E94EC0021E0892B09F420E0DA
:10020000822F089580E090E0892B29F00E94F80069
:1002100081110C9400000895FC01A48DA80FB92F42
:10022000B11DA35ABF4F2C91848D90E001968F731E
:100230009927848FA689B7892C93A089B1898C913D
:10024000837080648C93938D848D981306C002888C
:10025000F389E02D80818F7D80830895EF92FF9256
:100260000F931F93CF93DF93EC0181E0888F9B8DD9
:100270008C8D98131AC0E889F989808185FF15C093
:100280009FB7F894EE89FF896083E889F9898081B6
:100290008370806480839FBF81E090E0DF91CF9185
:1002A0001F910F91FF90EF900895F62E0B8D10E0A7
:1002B0000F5F1F4F0F731127E02E8C8D8E110CC016
:1002C0000FB607FCFACFE889F989808185FFF5CF61
:1002D000CE010E940C01F1CFEB8DEC0FFD2FF11D33
:1002E000E35AFF4FF0829FB7F8940B8FEA89FB899E
:1002F00080818062CFCFCF93DF93EC01888D8823FC
:10030000B9F0AA89BB89E889F9898C9185FD03C078
:10031000808186FD0DC00FB607FCF7CF8C9185FF5D
:10032000F2CF808185FFEDCFCE010E940C01E9CF95
:10033000DF91CF910895833081F028F4813099F0D6
:100340008230A9F008958730A9F08830C9F0843050
:10035000B1F4809180008F7D03C0809180008F7701
:1003600080938000089584B58F7784BD089584B507
:100370008F7DFBCF8091B0008F778093B000089580
:100380008091B0008F7DF9CFCF93DF93282F30E09D
:10039000F901E255FF4F8491F901E656FF4FD491E0
:1003A000F901EA57FF4FC491CC23A1F081110E94BB
:1003B0009B01EC2FF0E0EE0FFF1FE458FF4FA591DB
:1003C000B491EC91ED2381E090E009F480E0DF91BD
:1003D000CF91089580E090E0FACF1F93CF93DF9301
:1003E000282F30E0F901E255FF4F8491F901E656DC
:1003F000FF4FD491F901EA57FF4FC491CC23A9F0E4
:10040000162F81110E949B01EC2FF0E0EE0FFF1FD1
:10041000EE58FF4FA591B4918FB7F894EC9111115C
:1004200008C0D095DE23DC938FBFDF91CF911F9161
:100430000895DE2BF8CFE6E1F3E0178210861186EF
:1004400012861386148615861686178613821482E2
:10045000158216821282118260E080810C94ED0177
:10046000CF93DF9390E0FC01E656FF4F24918A572B
:100470009F4FFC0184918823C9F090E0880F991F59
:10048000FC01E859FF4FA591B491FC01EE58FF4FD4
:10049000C591D49161110DC09FB7F8948C912095AE
:1004A00082238C938881282328839FBFDF91CF915B
:1004B0000895623051F49FB7F8943C91822F809553
:1004C00083238C93E8812E2BEFCF8FB7F894EC9198
:1004D0002E2B2C938FBFEACF3FB7F8948091550213
:1004E00090915602A0915702B091580226B5A89B50
:1004F00005C02F3F19F00196A11DB11D3FBFBA2FB6
:10050000A92F982F8827BC01CD01620F711D811D75
:10051000911D42E0660F771F881F991F4A95D1F7FA
:1005200008958F929F92AF92BF92CF92DF92EF92F7
:10053000FF924B015C010E946C026B017C010E94E6
:100540006C026C197D098E099F09683E7340810514
:100550009105A8F321E0821A9108A108B10888EE5C
:10056000C80E83E0D81EE11CF11C81149104A10483
:10057000B10429F7FF90EF90DF90CF90BF90AF903C
:100580009F908F9008952FB7F894609151027091C9
:10059000520280915302909154022FBF08952091EE
:1005A0000602260F3327331F21323105ECF4209148
:1005B0002A02FC0190E080E0243069F082E0089596
:1005C000A09106022191AC014A515E4FA40FB52FB4
:1005D000B11D2C930196861798F380910602680F3F
:1005E0006093060280E0089581E0089510922A0247
:1005F00081E080932C0210922B0261E082E10E9444
:10060000ED0161E083E10E94ED01E9EBF0E0808122
:100610008E7F808380818D7F808388E48093B80083
:1006200085E48093BC000895CF93DF9391E090938D
:10063000E5018823B9F0C091B800D091BA0080914B
:10064000BC008A7B8093BC0060E082E10E94ED01E7
:1006500060E083E10E94ED010E94F602D093BA00AF
:10066000C093B800DF91CF9108950895E0916002A2
:1006700080915F02E81730F4F0E0E054FE4F808193
:1006800090E008958FEF9FEF089590916002809120
:100690005F022FEF3FEF981748F4E92FF0E0E054A6
:1006A000FE4F208130E09F5F90936002C901089562
:1006B00080915F0290916002891B990B0895CF92FF
:1006C000DF92EF92FF920F931F93CF93DF937C0102
:1006D000CB018A012091BF01222389F0EB016B013C
:1006E000C40ED51ECC15DD0569F06991D701ED91D9
:1006F000FC910190F081E02DC7010995F3CF642FA3
:100700000E94CF02C801DF91CF911F910F91FF90FE
:10071000EF90DF90CF900895CF93DF931F92CDB7E6
:10072000DEB769832091BF012223F9F020915D0299
:10073000203258F021E030E0FC013383228390E046
:1007400080E00F90DF91CF91089580915E02E82FB5
:10075000F0E0E156FE4F998190838F5F80935E02B7
:1007600080935D0281E090E0ECCF61E0CE010196E4
:100770000E94CF02F7CFCF92DF92EF92FF920F93BA
:100780001F93CF93DF93FC01C48121E02093BF012D
:10079000C0939E0110925E0210925D028385682BC9
:1007A0008AE093E00E948C03D0915D02D13208F080
:1007B00092C00E946C026B017C0180912A0281111F
:1007C00065C082E080932A0281E080932C028FEF43
:1007D0008093290210924E02D0934D02AFE9B1E00E
:1007E000EDE2F2E080E0D81385C010924F028091D4
:1007F0004F02CC0FC82BC0934F0280912B02813047
:1008000009F07CC010922B020E946C026B017C01EB
:1008100080914F028093BB008091E1019091E201B1
:10082000A091E301B091E401892B8A2B8B2B99F0E5
:100830000E946C020091E1011091E2012091E3011C
:100840003091E4016C197D098E099F09061717077D
:1008500028073907E0F18091BC0083FDD9CF85ECF2
:100860008093BC000E946C026B017C0180912A0283
:10087000823009F445C0809129028F3F61F1809157
:100880002902803241F18091290225C08091E10145
:100890009091E201A091E301B091E401892B8A2BB0
:1008A0008B2B09F48ACF0E946C020091E101109118
:1008B000E2012091E3013091E4016C197D098E0978
:1008C0009F09061717072807390708F076CF809188
:1008D000E0010E94140310925E0210925D021092D9
:1008E000BF01DF91CF911F910F91FF90EF90DF90AB
:1008F000CF9008959D9191938F5F75CF85EEB0CF86
:100900008091E1019091E201A091E301B091E401B5
:10091000892B8A2B8B2B09F4A9CF0E946C020091A2
:10092000E1011091E2012091E3013091E4016C19A1
:100930007D098E099F09061717072807390708F050
:1009400095CFC5CF089590E080E008950F931F9351
:10095000CF93DF93EC0189818A8388810E94C4014F
:1009600089839A81891731F062E370E080E090E03A
:100970000E9491028A81813091F4998191113DC048
:100980008B879E8589278E870E94C3026F83788715
:1009900089879A87DF91CF911F910F9108958111D7
:1009A0002CC0898181111FC01B860E94C3020F8148
:1009B000188529853A85DC01CB01801B910BA20BA0
:1009C000B30B8F87988BA98BBA8B0B811C812D81E0
:1009D0003E81081719072A073B0718F481E08D8725
:1009E000D9CF1D86D7CF813041F41B868C871D86D9
:1009F0001F86188A198A1A8ACDCF1B861C86F7CFC4
:100A00000F931F93FC0180819181A281B381448562
:100A100055856685778584179507A607B70770F40F
:100A200020892223A1F00481158126813781800F3E
:100A3000911FA21FB31F0196A11DB11D841B950B11
:100A4000A60BB70B80839183A283B38304C010826B
:100A500011821282138280819181A281B3814085AB
:100A600051856285738584179507A607B707B0F48B
:100A700020892223B1F00481158126813781800FDE
:100A8000911FA21FB31F0196A11DB11D841B950BC1
:100A9000A60BB70B80839183A283B3831F910F9121
:100AA00008954083518362837383F8CFFB010190E3
:100AB0000020E9F73197AF01461B570BDC01ED91A0
:100AC000FC910280F381E02D099485ED8093BC00B8
:100AD0008091E1019091E201A091E301B091E401E4
:100AE0000796A11DB11D23E0B695A795979587950B
:100AF0002A95D1F72091BC0024FD03C010922A0250
:100B000008954091E1015091E2016091E3017091FB
:100B1000E401452B462B472B69F30097A105B1054E
:100B200041F02AE22A95F1F700C00197A109B10925
:100B3000E1CF8091E0010C9414030F931F93CF93A6
:100B40008C01C62F0E94BB036C2F6460C8010E94F9
:100B5000BB036C2F6B7FC8010E94BB0383EC90E04A
:100B60000197F1F7CF911F910F9108950F931F9364
:100B7000CF93DF938C01D62FC42F607F642B0E940C
:100B80009D0580E1D89FB00111246C2BC801DF9135
:100B9000CF911F910F910C949D0541E00E94B605E5
:100BA00081E090E0089541E0682F80E294E00E94A7
:100BB000B60581E090E0089540E061E080E294E0D5
:100BC0000E94B6058BE39FE10197F1F708950F931B
:100BD0001F93CF93DF938B0198E0899FB00111247D
:100BE000606440E080E294E00E94B605E801085F9E
:100BF0001F4F699180E294E00E94CD05C017D10794
:100C0000C1F7DF91CF911F910F910895CF93DF939B
:100C1000CDB7DEB728970FB6F894DEBF0FBECDBFB5
:100C200028E0E0E2F1E0DE01119601900D922A95B4
:100C3000E1F7FC012085241710F44FEF420F50E03C
:100C4000440F551F21E030E02C0F3D1F420F531F72
:100C5000FA012081620F606840E028960FB6F89490
:100C6000DEBF0FBECDBFDF91CF910C94B6058F9242
:100C70009F92AF92BF92CF92DF92EF92FF920F932B
:100C80001F93CF93DF93CDB7DEB72E970FB6F894AF
:100C9000DEBF0FBECDBFDC015F962D913C912115CB
:100CA000310509F412C18C01FC0145896189C90132
:100CB0000E940606D8016D917D918D919C912CE347
:100CC00030E040E050E00E9435119F938F937F9376
:100CD0006F935F934F933F932F93F801828D8F9380
:100CE000818D8F9384E791E09F938F93CE0101963E
:100CF0007C019F938F930E9469110FB6F894DEBF19
:100D00000FBECDBFF80185A996A9A7A9B0AD892BC3
:100D10008A2B8B2B09F4F0C081A592A5A3A5B4A5BD
:100D20000097A105B105F9F4D8015F968D919C91CA
:100D300090979796ED91FC91989799964D915C912B
:100D400065E0649F9001659F300D11240190F08152
:100D5000E02DE20FF31F2081222309F496C0B70192
:100D60000E9456059DC027A130A5F90142815381FB
:100D70006481758184179507A607B70750F50E940F
:100D8000C302D8019D968D909D90AD90BC90D09758
:100D9000681979098A099B099796ED91FC919897B2
:100DA00099964D915C91A5E0A49F9001A59F300D6F
:100DB00011240190F081E02DE20FF31F359781801F
:100DC0009280A380B480681579058A059B0508F098
:100DD000ABCFD8019796ED91FC91989799964D914C
:100DE0005D916D917C919C9782819381A481B58165
:100DF000481759076A077B0708F467C00E94C302B7
:100E0000F801C5A4D6A4E7A4F0A86C197D098E0941
:100E10009F0907A0F0A5E02DD80199964D915C910E
:100E2000A5E0A49F9001A59F300D11240190F081B1
:100E3000E02DE20FF31F3597C180D280E380F4806C
:100E40006C157D058E059F0508F43FC0F80181A94A
:100E500092A9A3A9B4A945A956A967A970AD415003
:100E600051096109710984179507A607B70708F0AA
:100E70003FC00196A11DB11D81AB92ABA3ABB4AB3A
:100E800011A612A613A614A620C063E871E00E9462
:100E900056050E94C302F80165A776A787A790AB05
:100EA000F80181A592A5A3A5B4A50196A11DB11D28
:100EB00081A792A7A3A7B4A70E94C302D8019D96B9
:100EC0006D937D938D939C93D0972E960FB6F89447
:100ED000DEBF0FBECDBFDF91CF911F910F91FF906D
:100EE000EF90DF90CF90BF90AF909F908F9008953C
:100EF000C8010E94C207E9CFB701878D90A10E9467
:100F00005605E3CF0F931F93CF93DF93EC018DA191
:100F1000811108C08EA1811118C0DF91CF911F915E
:100F20000F9108950E94C3020B8D1C8D2D8D3E8D57
:100F3000601B710B820B930B09A11AA12BA13CA181
:100F4000601771078207930728F3CE010E940005FE
:100F5000488559856A857B8588819981AA81BB816D
:100F6000481759076A077B0719F41DA281E08EA371
:100F7000CE010E9437060E94C3026B8F7C8F8D8F3B
:100F80009E8FCBCFCF93DF93EC018C819D81AE817F
:100F9000BF8188839983AA83BB831DAA1EAA1FAA27
:100FA00018AE19AA1AAA1BAA1CAA18A61FA2CE011B
:100FB0000E9437061DA21EA2DF91CF9108951F92B5
:100FC0000F920FB60F9211242F933F934F935F937D
:100FD0006F937F938F939F93AF93BF93EF93FF9301
:100FE0008DE692E00E940C01FF91EF91BF91AF91CD
:100FF0009F918F917F916F915F914F913F912F9131
:101000000F900FBE0F901F9018951F920F920FB662
:101010000F9211242F938F939F93EF93FF93E0915F
:101020007D02F0917E028081E0918302F091840242
:1010300082FD1BC09081809186028F5F8F7320910B
:101040008702821741F0E0918602F0E0E359FD4FFC
:10105000958F80938602FF91EF919F918F912F91B1
:101060000F900FBE0F901F9018958081F4CF1F92A4
:101070000F920FB60F9211242F933F938F939F934C
:10108000AF93BF938091510290915202A09153026D
:10109000B09154023091500223E0230F2D3758F5C0
:1010A0000196A11DB11D209350028093510290938F
:1010B0005202A0935302B093540280915502909132
:1010C0005602A0915702B09158020196A11DB11D80
:1010D0008093550290935602A0935702B093580202
:1010E000BF91AF919F918F913F912F910F900FBE24
:1010F0000F901F90189526E8230F0296A11DB11D91
:10110000D2CF1F920F920FB60F9211242F933F93BD
:101110004F935F936F937F938F939F93AF93BF93FF
:10112000EF93FF938091B900887F803609F44AC01D
:10113000F0F5883209F4A7C018F5803109F49BC096
:10114000B8F4882309F4F9C0883009F494C0FF91F9
:10115000EF91BF91AF919F918F917F916F915F912F
:101160004F913F912F910F900FBE0F901F901895A8
:10117000883109F488C0803251F78093290214C065
:10118000803409F49DC040F48033B9F38833F9F614
:101190008093290285ECB0C0803509F485C088357C
:1011A00009F496C0883499F60E946505D0CF883935
:1011B00009F48CC038F5883729F050F4883611F0DE
:1011C000803729F683E080932A021092280257C0C4
:1011D000883809F47BC0803919F0803809F0B7CF1E
:1011E00080912802803208F071C0E091280281E0ED
:1011F0008E0F809328028091BB00F0E0E85FFD4FE6
:1012000080833DC0803B39F0E0F4803A09F479C036
:10121000883A09F09CCF84E080932A02109207025A
:1012200010920602E0915B02F0915C0209958091B8
:10123000060281110FC081E0809306021092E60140
:1012400009C0803C09F4A6CF883C09F4A3CF883BB1
:1012500009F07DCFE091070281E08E0F80930702B5
:10126000F0E0EA51FE4F80818093BB00909107022D
:101270008091060229C080914F028093BB0085ECCB
:101280008093BC0064CF90914E0280914D029817DC
:1012900058F5E0914E0281E08E0F80934E02F0E00F
:1012A000E35DFD4F8081E9CFE0914E0281E08E0F3A
:1012B00080934E028091BB00F0E0E35DFD4F8083A0
:1012C00090914E0280914D029817C8F285E8D8CFD0
:1012D000E0914E0281E08E0F80934E028091BB0020
:1012E000F0E0E35DFD4F808380912C0281115CCFA3
:1012F00081E080932B0284EA8093BC0010922A0242
:1013000026CF85EC8093BC0010922A02809128029F
:10131000803230F4E0912802F0E0E85FFD4F108267
:101320006091280270E0E0915902F0915A0288E041
:1013300092E00995109228020ACF1092290234CF28
:10134000CF92DF92EF92FF92CF93DF93EC01862F43
:1013500069017A011B861C861D861E861F86188AD7
:10136000198A1A8A688362E00E94300288810E948A
:10137000C40189838A83CB82DC82ED82FE82DF9185
:10138000CF91FF90EF90DF90CF9008954F925F92B2
:101390006F927F928F929F92AF92BF92CF92DF9285
:1013A000EF92FF92CF93DF93EDE6F2E01382128289
:1013B00088EE482E83E0582E612C712C4482558291
:1013C0006682778280E391E09183808385EC90E070
:1013D0009587848784EC90E09787868780EC90E0FF
:1013E000918B808B81EC90E0938B828B82EC90E0F0
:1013F000958B848B86EC90E0978B868B118E128E6A
:10140000138E148EEAE0F3E0138212824482558236
:101410006682778282E491E091838083E0E2F4E067
:101420001382128284E591E09183808387E2848332
:1014300084E1818784E08287138624E630E040E0FF
:1014400050E06BE08CE094E00E94A009C8E0D4E09A
:101450001F8A89E088838AE0898360E089E00E94AE
:10146000300260E089810E94300288810E94C401BC
:101470008A8389810E94C4018B83E7EFF3E01086A1
:10148000118612861386C12CD12C7601C394C48296
:10149000D582E682F782C486D586E686F7861082F4
:1014A00011821282138281E0808BE6EEF3E01086D7
:1014B00011861286138646E050E060E070E04483B7
:1014C000558366837783C486D586E686F786108241
:1014D000118212821382808BE5EDF3E01086118673
:1014E0001286138688EC90E0A0E0B0E084839583B8
:1014F000A683B783C486D586E686F78610821182D6
:1015000012821382108ACCE9D3E0188619861A86D3
:101510001B862EE1822E912CA12CB12C8C829D82D7
:10152000AE82BF82CC86DD86EE86FF861882198267
:101530001A821B82188AC98ADA8AEB8AFC8A1D8A77
:101540001E8A1F8A188E8CE891E09A8F898F0E94DC
:10155000C3026B8F7C8F8D8F9E8F18A21F8E49A226
:101560005AA26BA27CA21DA21EA218A61FA219A697
:101570001AA61BA61CA61DA61EA61FA618AA19AA57
:101580001AAA1BAA1CAA1DAA1EAA1FAA18AE8882E4
:101590009982AA82BB82CE010E943706C3E6D3E0BD
:1015A000188619861A861B868C829D82AE82BF821F
:1015B000CC86DD86EE86FF86188219821A821B820F
:1015C000188AC98ADA8AEB8AFC8ACD8ADE8AEF8A8F
:1015D000F88E8FE891E09A8F898F0E94C3026B8FFB
:1015E0007C8F8D8F9E8F18A21F8E49A25AA26BA24C
:1015F0007CA21DA21EA218A61FA219A61AA61BA68F
:101600001CA61DA61EA61FA618AA19AA1AAA1BAABE
:101610001CAA1DAA1EAA1FAA18AE88829982AA8295
:10162000BB82CE010E94370628EB3BE040E050E051
:1016300063E080E593E00E94A00928E833E140E000
:1016400050E064E08DE393E00E94A00928E833E1D4
:1016500040E050E065E08AE293E00E94A009E6E104
:10166000F3E017821086118612861386148615867B
:1016700016861786108A118A128A138A86E080835A
:1016800061E0DF91CF91FF90EF90DF90CF90BF901E
:10169000AF909F908F907F906F905F904F900C9441
:1016A0003002CF93DF93CDB7DEB72E970FB6F89405
:1016B000DEBF0FBECDBF789484B5826084BD84B593
:1016C000816084BD85B5826085BD85B5816085BD3D
:1016D00080916E00816080936E00109281008091F5
:1016E000810082608093810080918100816080937D
:1016F0008100809180008160809380008091B100A2
:1017000084608093B1008091B00081608093B000CC
:1017100080917A00846080937A0080917A00826060
:1017200080937A0080917A00816080937A00809122
:101730007A00806880937A001092C100E0917D0267
:10174000F0917E0282E08083E0917902F0917A024A
:101750001082E0917B02F0917C028FEC80831092EA
:101760008502E0918102F091820286E08083E0911F
:101770007F02F0918002808180618083E0917F020E
:10178000F0918002808188608083E0917F02F091F7
:101790008002808180688083E0917F02F0918002E6
:1017A00080818F7D80831092600210925F02109280
:1017B0005E0210925D020E94F6028CE890E0909327
:1017C0005C0280935B028DE890E090935A028093D4
:1017D00059021092250480912A04823018F098E072
:1017E0009093250490E2E92E94E0F92E809328044A
:1017F00062E370E080E090E00E94910260912B042F
:10180000C7010E94BB0368EE73E080E090E00E9495
:10181000910260E3C7010E949D050BE416E4C80134
:101820000197F1F760E3C7010E949D05C801019788
:10183000F1F760E3C7010E949D0583E592E00197FF
:10184000F1F760E2C7010E949D0560912504606286
:1018500040E0C7010E94B60584E08093260440E082
:101860006CE0C7010E94B6050E94DC0582E080930F
:10187000270440E066E0C7010E94B60540E062E050
:10188000C7010E94B6058BE39FE10197F1F70E9423
:10189000DC0562E171E080E00E94E7056AE071E04A
:1018A00081E00E94E70561E672E082E00E94E705C0
:1018B00060E08EE00E94300261E084E00E9430022D
:1018C00061E086E00E94300261E086E00E94300222
:1018D0000E94DC058091F70341E0481B60E0C701EE
:1018E0000E94060680E20E94D3054091F70360E063
:1018F000C7010E9406068EE30E94D30540E06BE01C
:10190000C7010E94060662E971E0C7010E94560500
:1019100041E06BE0C7010E9406068091D8038F93D7
:101920008091D7038F938091D6038F938091D503B5
:101930008F9387E991E09F938F938E010F5F1F4FE5
:101940001F930F930E946911B801C7010E945605A9
:1019500041E06EE0C7010E94060660E0C7010E94F8
:10196000CD0541E06FE0C7010E9406066CE971E019
:10197000C7010E945605F092BC03E092BB038CE9BC
:1019800093E00E943706F0928303E092820383E69D
:1019900093E00E9437060FB6F894DEBF0FBECDBFAE
:1019A0009924939420E0222E20E0322E3AE1A32EB7
:1019B00031E0B32E11E048E0442E512C612C712C03
:1019C00006E0802E80914803811104C080916C0252
:1019D000882389F080914B0381112EC280916C0283
:1019E00081112AC210922B0460E080E294E00E94F0
:1019F000BB0310926C02809137038823C1F0809161
:101A00006B02811114C010936B0210936C02109240
:101A10003503109236031092370310923803109258
:101A2000390310923A0310923B0310923C038091C9
:101A30003603882329F080916B02811110926B028A
:101A400080914B03811105C080913803882309F4EC
:101A500065C280915C03882309F442C080916A02C8
:101A6000811102C2109217041092180410921904E6
:101A700010921A0410921B0410921C0410921D0460
:101A800010921E044091F70360E080E294E00E940F
:101A9000060680E20E94D3054091F70369E080E2E8
:101AA00094E00E94060680E20E94D3054091F7036D
:101AB00060E080E294E00E9406068EE30E94D30577
:101AC000E091F703F091F803EE0FFF1FE85DFE4F82
:101AD0000190F081E02D85A1811102C095A216A28E
:101AE00080915D03882371F11092170410921804FD
:101AF0001092190410921A0410921B0410921C04E4
:101B000010921D0410921E04E091F703F091F80367
:101B1000EE0FFF1FE85DFE4F808191810E94C2079A
:101B200010925B0310925C0310925D0310925E03AF
:101B300010925F031092600310926103109262038F
:101B400010936A028091C203882361F08091D103CF
:101B50009091D203A091D303B091D403892B8A2B07
:101B60008B2B91F080918903882309F44DC08091DB
:101B7000980390919903A0919A03B0919B03892BAC
:101B80008A2B8B2B09F040C00E941B024092190344
:101B900050921A0360921B0370921C03B0921803B8
:101BA000A092170310931D038091C2038823A1F014
:101BB0004092D1035092D2036092D3037092D40327
:101BC0001092CD031092CE031092CF031092D00347
:101BD000B092C403A092C303809189038823A1F02B
:101BE000409298035092990360929A0370929B03DB
:101BF00010929403109295031092960310929703FB
:101C0000B0928B03A0928A0380915B03882309F42E
:101C100042C0E091F703F091F803EE0FFF1FE85D7B
:101C2000FE4F0190F081E02D86A18823A1F10E9452
:101C30001B02E091F703F091F803EE0FFF1FE85D40
:101C4000FE4F808191810E94C2078091F70390919D
:101C5000F803A091F903B091FA0341E050E060E08D
:101C600070E0481B590B6A0B7B0B440F551F485DF6
:101C70005E4FFA0120813181F90126A1222349F02A
:101C8000880F991F885D9E4FDC018D919C910E9469
:101C9000C20710936A0280911704882391F1409142
:101CA000F7032091F80380911A0460E0882371F013
:101CB000842F922F880F991FFC01E85DFE4F019041
:101CC000F081E02D85A1882309F4D1C080E294E061
:101CD0000E94060680E20E94D3054091F70369E066
:101CE00080E294E00E94060680E20E94D3054091C3
:101CF000F70360E080E294E00E9406068EE30E9413
:101D0000D30590911F0410921F04992309F4E1C098
:101D100080911A04882379F0E091F703F091F80399
:101D2000EE0FFF1FE85DFE4F0190F081E02D85A1D1
:101D3000882309F4A7C0913009F044C14091F7030A
:101D40005091F8036091F9037091FA0380910304B4
:101D500090910404A0910504B0910604840F951F8E
:101D6000A61FB71F84179507A607B70788F4209109
:101D70000704222309F419C14091FF035091000484
:101D80006091010470910204840F951FA61FB71F74
:101D90008093F7039093F803A093F903B093FA03A9
:101DA0008091F7039091F803A091F903B091FA03A1
:101DB0004091FB035091FC036091FD037091FE0381
:101DC000481759076A077B0700F52091070422236B
:101DD00009F4EFC0C090FF03D0900004E09001042C
:101DE000F09002048C0D9D1DAE1DBF1D0197A10931
:101DF000B109841B950BA60BB70B8093F703909347
:101E0000F803A093F903B093FA038091F703492DE7
:101E1000481B60E080E294E00E94060680E20E9497
:101E2000D3054091F70360E080E294E00E9406064B
:101E30008EE30E94D3054DC00E941B0281E090E01A
:101E4000A0E0B0E08093190390931A03A0931B03C2
:101E5000B0931C03B0921803A092170310931D03B4
:101E600098E090932B04C0CD10926A0239CE80E2A4
:101E700094E00E9406068CE30E94D3054091F7038C
:101E800069E038CF80916902913009F086C08F5F98
:101E9000809369028091690287FF81C0B5E0B093A9
:101EA0006902A091690244E0A402D0011124A45A5D
:101EB000BE4F8D919D910D90BC91A02D84839583F3
:101EC000A683B78380839183A283B383CF010E94CB
:101ED000370680E593E00E94A604809108040E94E2
:101EE000C401082F80910A04801751F080910904E1
:101EF0000E94C4010817190609F469C010931F0451
:101F000000930A048CE094E00E94A6048CE993E01C
:101F10000E94820783E693E00E9482078DE393E0AC
:101F20000E94A6048AE293E00E94A60480911D0309
:101F3000882309F449C180911E0390911F03A09149
:101F40002003B09121030097A105B10509F043C01A
:101F5000E0911703F091180320911E0330911F03A5
:101F6000A5E0A29FC001A39F900D11240190F081D4
:101F7000E02DE80FF91FD080ED2CF12C0091160315
:101F800061E0802F0E943002E114F10409F0D0C01A
:101F900060E0802F0E94ED01FAC0815079CF682D5A
:101FA0000E942711909369027CCF8FEF9FEFDC0195
:101FB000EFCE4093F7035093F8036093F9037093C7
:101FC000FA0323CF87EF93E00E9400051ECF9FEF17
:101FD00090931F0495CFE0911703F091180342816D
:101FE00053816481758184179507A607B70770F53B
:101FF0000E94C302C0902603D0902703E0902803DC
:10200000F0902903AB01BC014C195D096E097F09F1
:10201000E0911703F091180380911E0390911F0324
:10202000B5E0B89F9001B99F300D11248081918156
:10203000820F931FFC01359781819281A381B48126
:10204000481759076A077B0708F082CFE09117030A
:10205000F091180340911E0350911F0360912003DB
:102060007091210382819381A481B581481759071A
:102070006A077B0708F4A8C00E94C302C090260329
:10208000D0902703E0902803F0902903AB01BC0116
:102090004C195D096E097F09E0911703F09118034F
:1020A00080911E0390911F03A5E0A89F9001A99F16
:1020B000300D112480819181820F931FFC0135978F
:1020C00081819281A381B481481759076A077B07F0
:1020D00008F47AC08091220390912303A0912403F5
:1020E000B09125034091190350911A0360911B038D
:1020F00070911C03415051096109710984179507BA
:10210000A607B70708F08BC00196A11DB11D8093EB
:10211000220390932303A0932403B09325031092EA
:102120001E0310921F0310922003109221034CC033
:10213000EFEFEE16F10411F461E02BCFE02FF0E0A9
:10214000E255FF4FE491E33009F44FC050F4E13021
:10215000D1F0E23009F444C0F0E8EF16F10464F77E
:1021600017CFE73009F44BC0E83009F450C0E43031
:1021700099F780918000806280938000F0928B00BC
:10218000E0928A0004C084B5806884BDD7BC809189
:102190001E0390911F03A0912003B091210301968B
:1021A000A11DB11D80931E0390931F03A0932003D4
:1021B000B09321030E94C302609326037093270308
:1021C00080932803909329032114310409F4FACB56
:1021D0000E94F800882309F4F3CB0E940000F0CBA2
:1021E00084B5806284BDD8BCD2CF809180008068E5
:1021F00080938000F0928900E0928800C8CF80919F
:10220000B00080688093B000D092B300C0CF8091BE
:10221000B00080628093B000D092B400B8CF10922A
:102220001D0310921E0310921F03109220031092A0
:102230002103109222031092230310922403109280
:10224000250360E0809116030E94ED01BDCF87FB5E
:10225000082E062687FD819567FD61950E9457111E
:102260000EF4919507FC81950895A1E21A2EAA1B00
:10227000BB1BFD010DC0AA1FBB1FEE1FFF1FA21736
:10228000B307E407F50720F0A21BB30BE40BF50B33
:10229000661F771F881F991F1A9469F760957095BC
:1022A000809590959B01AC01BD01CF010895991BCC
:1022B00079E004C0991F961708F0961B881F7A953D
:1022C000C9F780950895EE0FFF1F0590F491E02D5A
:1022D0000994AEE0B0E0EFE6F1E10C9418140D893A
:1022E0001E8986E08C831A8309838FEF9FE79E8384
:1022F0008D83AE01475E5F4F6F89788DCE01019669
:102300000E948C112F813885020F131FF801108253
:102310002E96E4E00C943414ABE0B0E0E2E9F1E195
:102320000C940A147C013B018A01FC01178216827D
:10233000838181FFC8C1CE0101965C01F7019381C1
:10234000F30193FD859193FF81913F01882309F467
:1023500053C1853239F493FD859193FF81913F01FB
:10236000853229F4B70190E00E947C13E7CF912CCD
:10237000212C312CFFE1F31538F08B3211F190F460
:10238000803209F1833229F137FC3CC020ED280F5F
:102390002A3050F536FE20C08AE0989E200D112488
:1023A000922E06C08D3291F0803371F7689430F828
:1023B000F30193FD859193FF81913F018111DACF64
:1023C00021C0689431F8689432F8F2CF689433F8F9
:1023D000EFCF689434F8ECCFEAE02E9E200D112464
:1023E000222E689435F8E4CF8E3229F436FC04C1ED
:1023F000689436F8DDCF8C3619F4689437F8D8CF66
:102400008836B1F2982F9F7D95549330E0F0833653
:10241000A1F18337C1F1833509F063C02801F2E0EF
:102420004F0E511CF801C080D180692D70E036FC40
:1024300002C06FEF7FEFC6010E9466134C016894E3
:1024400037F882010AC00C5F1F4FFFE3F98388242D
:102450008394912C6501E89437F833FE2DC0522CFB
:102460008114910471F5552009F468CFB70180E219
:1024700090E00E947C135A94F6CFF8018081898302
:102480000E5F1F4FE4CF2801F2E04F0E511CF80100
:10249000C080D180692D70E036FC02C06FEF7FEF05
:1024A000C6010E9471134C018201D5CFB70180E2B1
:1024B00090E00E947C132A942814190409F0B0F7C4
:1024C000CECFF60137FC859137FE81916F01B701C0
:1024D00090E00E947C1351105A94F1E08F1A9108F9
:1024E000BFCF843619F0893609F077C0F80137FE7E
:1024F0006BC060817181828193810C5F1F4FF32DCE
:10250000FF763F2E97FF09C0909580957095619555
:102510007F4F8F4F9F4F689437F82AE030E0A50136
:102520000E94AC13C82ECA188C2C432C36FE0CC04B
:10253000E89440F8C91440F434FE05C032FC03C0EE
:10254000F32DFE7E4F2E892C44FE95C0FE01EC0D2E
:10255000F11D8081803309F087C0242D297E422E11
:10256000842D8870582E43FC95C040FE8FC09C2C53
:10257000821418F42C0C922C981844FE91C0B701C8
:1025800080E390E00E947C1342FE09C088E790E05F
:1025900041FE02C088E590E0B7010E947C13C91497
:1025A00008F48AC0CA94D12C9FEFC91AD90ACA0C60
:1025B000DB1CF60182916F01B70190E00E947C1351
:1025C000AC14BD04B1F74FCF60817181072E000CB0
:1025D000880B990B0E5F1F4F92CFD32CE894D4F841
:1025E0002AE030E0853739F1232D297FD22E8F362E
:1025F00001F148F48835A9F0F701868197812B967F
:10260000E2E10C942614803749F08837A9F7D4FE0C
:1026100002C06894D2F820E130E00DC06894D4F88C
:10262000F6CF34FE03C0822F8660D82E20E132E040
:1026300002C028E030E0F801D7FE0FC06081718150
:10264000828193810C5F1F4FA5010E94AC13C82E9D
:10265000CA183D2CE89437F867CF6081718190E00B
:1026600080E00E5F1F4FF0CF42FC02C0839478CF12
:102670008394839475CF842D867809F471CFF6CF37
:10268000B70180E290E00E947C1383948214C0F32F
:10269000512C73CF522C5818821408F46ECFF8CFF7
:1026A000842D867809F47BCF8BE241FE80E247FCE3
:1026B0008DE2B70190E071CFB70180E390E00E9416
:1026C0007C139A946CCF8FEF9FEF99CFFC0105900C
:1026D000615070400110D8F7809590958E0F9F1F24
:1026E0000895FC016150704001900110D8F7809569
:1026F00090958E0F9F1F08950F931F93CF93DF9395
:10270000182F092FEB018B8181FD09C01FEF0FEFFF
:10271000812F902FDF91CF911F910F91089582FF0C
:1027200014C02E813F818C819D81281739073CF48C
:10273000E881F981CF0101969983888310838E8186
:102740009F8101969F838E83E3CFE885F985812F52
:102750000995892BA1F3DACFFA01AA27283051F184
:10276000203181F1E8946F936E7F6E5F7F4F8F4FC2
:102770009F4FAF4FB1E03ED0B4E03CD0670F781F21
:10278000891F9A1FA11D680F791F8A1F911DA11D06
:102790006A0F711D811D911DA11D20D009F468943F
:1027A0003F912AE0269F11243019305D3193DEF6E7
:1027B000CF010895462F4770405D4193B3E00FD09D
:1027C000C9F7F6CF462F4F70405D4A3318F0495D88
:1027D00031FD4052419302D0A9F7EACFB4E0A6956B
:1027E0009795879577956795BA95C9F7009761058D
:1027F000710508959B01AC010A2E069457954795E3
:1028000037952795BA95C9F7620F731F841F951FD7
:10281000A01D08952F923F924F925F926F927F92E8
:102820008F929F92AF92BF92CF92DF92EF92FF92E0
:102830000F931F93CF93DF93CDB7DEB7CA1BDB0B8C
:102840000FB6F894DEBF0FBECDBF09942A88398831
:1028500048885F846E847D848C849B84AA84B98438
:10286000C884DF80EE80FD800C811B81AA81B98144
:10287000CE0FD11D0FB6F894DEBF0FBECDBFED0158
:102880000895F894FFCF80F401000000F4010000E7
:10289000000000000000001F060906000000000004
:1028A00000010200000000004000140054009C03DE
:1028B0006303000000002E018E00BB007B01EC00D2
:1028C000CA00DE00000000008C035F03A304350390
:1028D00058034503360300000000CD058E00A30415
:1028E000A2041E0000003C000000780000002C0143
:1028F00000005802000084030000257320253032B8
:102900006C753A2530326C75002020202020202064
:10291000200054310054320054656D700025336C32
:0429200075004300FB
:107E0000112484B714BE81FFF0D085E080938100F7
:107E100082E08093C00088E18093C10086E0809377
:107E2000C20080E18093C4008EE0C9D0259A86E02C
:107E300020E33CEF91E0309385002093840096BBD3
:107E4000B09BFECF1D9AA8958150A9F7CC24DD24C4
:107E500088248394B5E0AB2EA1E19A2EF3E0BF2EE7
:107E6000A2D0813461F49FD0082FAFD0023811F036
:107E7000013811F484E001C083E08DD089C08234E0
:107E800011F484E103C0853419F485E0A6D080C0E4
:107E9000853579F488D0E82EFF2485D0082F10E0AE
:107EA000102F00270E291F29000F111F8ED06801E7
:107EB0006FC0863521F484E090D080E0DECF843638
:107EC00009F040C070D06FD0082F6DD080E0C81688
:107ED00080E7D80618F4F601B7BEE895C0E0D1E017
:107EE00062D089930C17E1F7F0E0CF16F0E7DF06D8
:107EF00018F0F601B7BEE89568D007B600FCFDCFD4
:107F0000A601A0E0B1E02C9130E011968C91119780
:107F100090E0982F8827822B932B1296FA010C0160
:107F200087BEE89511244E5F5F4FF1E0A038BF0790
:107F300051F7F601A7BEE89507B600FCFDCF97BE46
:107F4000E89526C08437B1F42ED02DD0F82E2BD052
:107F50003CD0F601EF2C8F010F5F1F4F84911BD097
:107F6000EA94F801C1F70894C11CD11CFA94CF0C13
:107F7000D11C0EC0853739F428D08EE10CD085E9AC
:107F80000AD08FE07ACF813511F488E018D01DD067
:107F900080E101D065CF982F8091C00085FFFCCF94
:107FA0009093C60008958091C00087FFFCCF809118
:107FB000C00084FD01C0A8958091C6000895E0E648
:107FC000F0E098E1908380830895EDDF803219F02E
:107FD00088E0F5DFFFCF84E1DECF1F93182FE3DFCA
:107FE0001150E9F7F2DF1F91089580E0E8DFEE27F6
:047FF000FF270994CA
:027FFE00040479
:00000001FF
