:020000040000FA
:100000000C9462000C948A000C948A000C948A0070
:100010000C948A000C948A000C948A000C948A0038
:100020000C948A000C948A000C948A000C948A0028
:100030000C948A000C948A000C948A000C948A0018
:100040000C94B8050C948A000C9486050C946005F9
:100050000C948A000C948A000C948A000C948A00F8
:100060000C9402060C948A00000000002400270073
:100070002A0000000000250028002B0000000000DE
:1000800023002600290004040404040404040202DA
:100090000202020203030303030301020408102007
:1000A0004080010204081020010204081020000012
:1000B0000008000201000003040700000000000027
:1000C0000000210711241FBECFEFD8E0DEBFCDBF57
:1000D00011E0A0E0B1E0E8E7FBE102C005900D927D
:1000E000A237B107D9F723E0A2E7B1E001C01D9222
:1000F000A631B207E1F710E0C2E6D0E004C02197D4
:10010000FE010E94DC0AC136D107C9F70E946907C7
:100110000C94BA0D0C94000008950895AF92BF920C
:10012000CF92DF92EF92FF920F931F93CF93DF93C3
:100130006C017B018B01040F151FEB015E01AE18F2
:10014000BF08C017D10759F06991D601ED91FC9114
:100150000190F081E02DC6010995892B79F7C50141
:10016000DF91CF911F910F91FF90EF90DF90CF9093
:10017000BF90AF900895FC01538D448D252F30E042
:10018000842F90E0821B930B541710F0CF960895A4
:1001900001970895FC01918D828D981761F0A28DD1
:1001A000AE0FBF2FB11D5D968C91928D9F5F9F7397
:1001B000928F90E008958FEF9FEF0895FC01918D4D
:1001C000828D981731F0828DE80FF11D858D90E0BA
:1001D00008958FEF9FEF0895FC01918D228D892F57
:1001E00090E0805C9F4F821B91098F73992708953F
:1001F00081E692E00E94EC0021E0892B09F420E0E6
:10020000822F089580E090E0892B29F00E94F80069
:1002100081110C9400000895FC01A48DA80FB92F42
:10022000B11DA35ABF4F2C91848D90E001968F731E
:100230009927848FA689B7892C93A089B1898C913D
:10024000837080648C93938D848D981306C002888C
:10025000F389E02D80818F7D80830895EF92FF9256
:100260000F931F93CF93DF93EC0181E0888F9B8DD9
:100270008C8D98131AC0E889F989808185FF15C093
:100280009FB7F894EE89FF896083E889F9898081B6
:100290008370806480839FBF81E090E0DF91CF9185
:1002A0001F910F91FF90EF900895F62E0B8D10E0A7
:1002B0000F5F1F4F0F731127E02E8C8D8E110CC016
:1002C0000FB607FCFACFE889F989808185FFF5CF61
:1002D000CE010E940C01F1CFEB8DEC0FFD2FF11D33
:1002E000E35AFF4FF0829FB7F8940B8FEA89FB899E
:1002F00080818062CFCFCF93DF93EC01888D8823FC
:10030000B9F0AA89BB89E889F9898C9185FD03C078
:10031000808186FD0DC00FB607FCF7CF8C9185FF5D
:10032000F2CF808185FFEDCFCE010E940C01E9CF95
:10033000DF91CF910895833081F028F4813099F0D6
:100340008230A9F008958730A9F08830C9F0843050
:10035000B1F4809180008F7D03C0809180008F7701
:1003600080938000089584B58F7784BD089584B507
:100370008F7DFBCF8091B0008F778093B000089580
:100380008091B0008F7DF9CFCF93DF93282F30E09D
:10039000F901E255FF4F8491F901E656FF4FD491E0
:1003A000F901EA57FF4FC491CC23A1F081110E94BB
:1003B0009B01EC2FF0E0EE0FFF1FE458FF4FA591DB
:1003C000B491EC91ED2381E090E009F480E0DF91BD
:1003D000CF91089580E090E0FACF1F93CF93DF9301
:1003E000282F30E0F901E255FF4F8491F901E656DC
:1003F000FF4FD491F901EA57FF4FC491CC23A9F0E4
:10040000162F81110E949B01EC2FF0E0EE0FFF1FD1
:10041000EE58FF4FA591B4918FB7F894EC9111115C
:1004200008C0D095DE23DC938FBFDF91CF911F9161
:100430000895DE2BF8CFCF93DF9390E0FC01E656D2
:10044000FF4F24918A579F4FFC0184918823C9F064
:1004500090E0880F991FFC01E859FF4FA591B491D6
:10046000FC01EE58FF4FC591D49161110DC09FB7AB
:10047000F8948C91209582238C938881282328835B
:100480009FBFDF91CF910895623051F49FB7F894E8
:100490003C91822F809583238C93E8812E2BEFCF84
:1004A0008FB7F894EC912E2B2C938FBFEACF3FB7E8
:1004B000F8948091250290912602A0912702B09194
:1004C000280226B5A89B05C02F3F19F00196A11D53
:1004D000B11D3FBFBA2FA92F982F8827BC01CD018E
:1004E000620F711D811D911D42E0660F771F881FED
:1004F000991F4A95D1F708958F929F92AF92BF921C
:10050000CF92DF92EF92FF924B015C010E94570263
:100510006B017C010E9457026C197D098E099F09AD
:10052000683E734081059105A8F321E0821A910885
:10053000A108B10888EEC80E83E0D81EE11CF11CAA
:1005400081149104A104B10429F7FF90EF90DF908A
:10055000CF90BF90AF909F908F9008950895209175
:10056000B301260F3327331F21323105ECF42091DC
:10057000FC01FC0190E080E0243069F082E0089505
:10058000A091B3012191AC014D565E4FA40FB52F40
:10059000B11D2C930196861798F38091B301680FD3
:1005A0006093B30180E0089581E008951092FC010A
:1005B00081E08093FB011092D60161E082E10E940C
:1005C000ED0161E083E10E94ED01E9EBF0E0808163
:1005D0008E7F808380818D7F808388E48093B800C4
:1005E00085E48093BC000895CF93DF9391E09093CE
:1005F00092018823B9F0C091B800D091BA008091DF
:10060000BC008A7B8093BC0060E082E10E94ED0127
:1006100060E083E10E94ED010E94D602D093BA000F
:10062000C093B800DF91CF9108950895E091300212
:1006300080912F02E81730F4F0E0EE58FE4F8081F1
:1006400090E008958FEF9FEF089590913002809190
:100650002F022FEF3FEF981748F4E92FF0E0EE5804
:10066000FE4F208130E09F5F90933002C9010895D2
:1006700080912F0290913002891B990B0895CF929F
:10068000DF92EF92FF920F931F93CF93DF937C0142
:10069000CB018A0120910202222389F0EB016B0138
:1006A000C40ED51ECC15DD0569F06991D701ED9119
:1006B000FC910190F081E02DC7010995F3CF642FE3
:1006C0000E94AF02C801DF91CF911F910F91FF905F
:1006D000EF90DF90CF900895CF93DF931F92CDB727
:1006E000DEB76983209102022223F9F020912D02C6
:1006F000203258F021E030E0FC013383228390E087
:1007000080E00F90DF91CF91089580912E02E82F25
:10071000F0E0ED5FFD4F998190838F5F80932E0213
:1007200080932D0281E090E0ECCF61E0CE01019654
:100730000E94AF02F7CFCF92DF92EF92FF920F931A
:100740001F93CF93DF93FC01C48121E02093020229
:10075000C093230210922E0210922D028385682BE3
:100760008EEF92E00E946C03D0912D02D13208F0FE
:1007700092C00E9457026B017C018091FC018111A3
:1007800065C082E08093FC0181E08093FB018FEFE4
:100790008093FA011092F901D093F801A3E0B2E03E
:1007A000E8EDF1E080E0D81385C01092D701809188
:1007B000D701CC0FC82BC093D7018091D6018130CF
:1007C00009F07CC01092D6010E9457026B017C0197
:1007D0008091D7018093BB008091FE019091FF0131
:1007E000A0910002B0910102892B8A2B8B2B99F0EA
:1007F0000E9457020091FE011091FF01209100021A
:10080000309101026C197D098E099F09061717079F
:1008100028073907E0F18091BC0083FDD9CF85EC32
:100820008093BC000E9457026B017C018091FC0107
:10083000823009F445C08091FA018F3F61F18091C7
:10084000FA01803241F18091FA0125C08091FE01C8
:100850009091FF01A0910002B0910102892B8A2B97
:100860008B2B09F48ACF0E9457020091FE01109150
:10087000FF0120910002309101026C197D098E095F
:100880009F09061717072807390708F076CF8091C8
:10089000FD010E94F40210922E0210922D0210927D
:1008A0000202DF91CF911F910F91FF90EF90DF90A7
:1008B000CF9008959D9191938F5F75CF85EEB0CFC6
:1008C0008091FE019091FF01A0910002B091010280
:1008D000892B8A2B8B2B09F4A9CF0E9457020091F8
:1008E000FE011091FF0120910002309101026C196C
:1008F0007D098E099F09061717072807390708F091
:1009000095CFC5CF90E080E008950F931F93CF93CC
:100910008C01C62F0E949B036C2F6460C8010E944B
:100920009B036C2F6B7FC8010E949B0383EC90E0BC
:100930000197F1F7CF911F910F9108950F931F9396
:10094000CF93DF938C01D62FC42F607F642B0E943E
:10095000850480E1D89FB00111246C2BC801DF9180
:10096000CF911F910F910C948504CF93DF93CDB756
:10097000DEB728970FB6F894DEBF0FBECDBF98E064
:10098000E0E1F1E0DE01119601900D929A95E1F718
:1009900090911203961710F46FEF690F262F30E035
:1009A000220F331F41E050E04C0F5D1F240F351F15
:1009B000F9016081680F606840E08AE093E0289662
:1009C0000FB6F894DEBF0FBECDBFDF91CF910C9470
:1009D0009E0440E061E08AE093E00E949E048BE385
:1009E0009FE10197F1F7089541E00E949E0481E0A4
:1009F00090E008950F931F93CF93DF938B0198E0BE
:100A0000899FB0011124606440E08AE093E00E9475
:100A10009E04E801085F1F4F69918AE093E00E94FD
:100A2000F404C017D107C1F7DF91CF911F910F9147
:100A30000895FB0101900020E9F73197AF01461BB3
:100A4000570BDC01ED91FC910280F381E02D0994BC
:100A500085ED8093BC008091FE019091FF01A091F3
:100A60000002B09101020796A11DB11D23E0B695C9
:100A7000A795979587952A95D1F72091BC0024FDDD
:100A800003C01092FC0108954091FE015091FF01B6
:100A90006091000270910102452B462B472B69F3B0
:100AA0000097A105B10541F02AE22A95F1F700C0AF
:100AB0000197A109B109E1CF8091FD010C94F402E5
:100AC0001F920F920FB60F9211242F933F934F93C3
:100AD0005F936F937F938F939F93AF93BF93EF93A6
:100AE000FF9381E692E00E940C01FF91EF91BF918C
:100AF000AF919F918F917F916F915F914F913F91B6
:100B00002F910F900FBE0F901F9018951F920F926C
:100B10000FB60F9211242F938F939F93EF93FF9310
:100B2000E0917102F09172028081E0917702F09180
:100B3000780282FD1BC0908180917A028F5F8F7353
:100B400020917B02821741F0E0917A02F0E0EF59A8
:100B5000FD4F958F80937A02FF91EF919F918F9136
:100B60002F910F900FBE0F901F9018958081F4CF9A
:100B70001F920F920FB60F9211242F933F938F93D2
:100B80009F93AF93BF938091390290913A02A091C5
:100B90003B02B0913C023091240223E0230F2D3719
:100BA00058F50196A11DB11D2093240280933902AE
:100BB00090933A02A0933B02B0933C0280912502AD
:100BC00090912602A0912702B09128020196A11DC2
:100BD000B11D8093250290932602A0932702B09323
:100BE0002802BF91AF919F918F913F912F910F90CC
:100BF0000FBE0F901F90189526E8230F0296A11D97
:100C0000B11DD2CF1F920F920FB60F9211242F93C6
:100C10003F934F935F936F937F938F939F93AF9384
:100C2000BF93EF93FF938091B900887F803609F4DA
:100C30004AC0F0F5883209F4A7C018F5803109F4EC
:100C40009BC0B8F4882309F4F9C0883009F494C033
:100C5000FF91EF91BF91AF919F918F917F916F9194
:100C60005F914F913F912F910F900FBE0F901F906A
:100C70001895883109F488C0803251F78093FA01C1
:100C800014C0803409F49DC040F48033B9F3883334
:100C9000F9F68093FA0185ECB0C0803509F485C07F
:100CA000883509F496C0883499F60E942805D0CF7B
:100CB000883909F48CC038F5883729F050F4883623
:100CC00011F0803729F683E08093FC011092D50162
:100CD00057C0883809F47BC0803919F0803809F092
:100CE000B7CF8091D501803208F071C0E091D50175
:100CF00081E08E0F8093D5018091BB00F0E0EB5432
:100D0000FE4F80833DC0803B39F0E0F4803A09F427
:100D100079C0883A09F09CCF84E08093FC0110925E
:100D2000B4011092B301E0912B02F0912C020995CD
:100D30008091B30181110FC081E08093B3011092C3
:100D4000930109C0803C09F4A6CF883C09F4A3CFE5
:100D5000883B09F07DCFE091B40181E08E0F809354
:100D6000B401F0E0ED56FE4F80818093BB0090917E
:100D7000B4018091B30129C08091D7018093BB0059
:100D800085EC8093BC0064CF9091F9018091F801CB
:100D9000981758F5E091F90181E08E0F8093F901E1
:100DA000F0E0E852FE4F8081E9CFE091F90181E067
:100DB0008E0F8093F9018091BB00F0E0E852FE4F66
:100DC00080839091F9018091F8019817C8F285E825
:100DD000D8CFE091F90181E08E0F8093F9018091E5
:100DE000BB00F0E0E852FE4F80838091FB0181114F
:100DF0005CCF81E08093D60184EA8093BC0010929E
:100E0000FC0126CF85EC8093BC001092FC01809100
:100E1000D501803230F4E091D501F0E0EB54FE4F83
:100E200010826091D50170E0E0912902F0912A02D0
:100E300085EB91E009951092D5010ACF1092FA0145
:100E400034CFE1E6F2E01382128288EE93E0A0E074
:100E5000B0E084839583A683B78322E231E03183B7
:100E6000208325EC30E03587248724EC30E0378779
:100E7000268720EC30E0318B208B21EC30E0338B67
:100E8000228B22EC30E0358B248B26EC30E0378B44
:100E9000268B118E128E138E148EEEEFF2E01382DB
:100EA000128284839583A683B78384E391E0918340
:100EB0008083EAE0F3E01382128286E491E091837A
:100EC000808387E2848384E1818784E0828713863C
:100ED0000895CF93DF93CDB7DEB7A1970FB6F894FF
:100EE000DEBF0FBECDBF789484B5826084BD84B56B
:100EF000816084BD85B5826085BD85B5816085BD15
:100F000080916E00816080936E00109281008091CC
:100F10008100826080938100809181008160809354
:100F20008100809180008160809380008091B10079
:100F300084608093B1008091B00081608093B000A4
:100F400080917A00846080937A0080917A00826038
:100F500080937A0080917A00816080937A008091FA
:100F60007A00806880937A001092C10089E08093B3
:100F700047028AE0809348028BE08093490260E058
:100F800089E00E941B0260E0809148020E941B02DF
:100F900062E0809149020E941B02809147020E94F8
:100FA000C40180934A02809148020E94C401809348
:100FB0004B02809149020E94C40180934C0210921E
:100FC00044021092430281E090E0909342028093A9
:100FD0004102909346028093450210924002109283
:100FE0003F0210925A021092590220EA35E03093E3
:100FF00058022093570290935C0280935B021092F8
:1010000056021092550210925202109251023093E1
:10101000500220934F0290935402809353021092F7
:101020004E0210924D02E0917102F091720282E044
:101030008083E0916D02F0916E021082E0916F0268
:10104000F09170028FEC808310927902E09175022A
:10105000F091760286E08083E0917302F091740251
:10106000808180618083E0917302F09174028081BD
:1010700088608083E0917302F091740280818068BF
:101080008083E0917302F091740280818F7D808370
:101090001092300210922F0210922E0210922D0206
:1010A0000E94D6028CE890E090932C0280932B0251
:1010B0008DE890E090932A028093290210920F030A
:1010C00080911403823018F098E090930F0380937E
:1010D000120362E370E080E090E00E947C02609185
:1010E00015038AE093E00E949B0368EE73E080E0C2
:1010F00090E00E947C0260E38AE093E00E94850415
:101100000BE416E4C8010197F1F760E38AE093E08D
:101110000E948504C8010197F1F760E38AE093E03B
:101120000E94850483E592E00197F1F760E28AE08E
:1011300093E00E94850460910F03606240E08AE0C2
:1011400093E00E949E0484E08093100340E06CE0F2
:101150008AE093E00E949E040E94E90482E080936A
:10116000110340E066E08AE093E00E949E0440E0C4
:1011700062E08AE093E00E949E048BE39FE1019786
:10118000F1F788E08093150360E08AE093E00E9425
:101190009B030E94E90468E071E080E00E94FA0489
:1011A00060E071E081E00E94FA0461E372E082E0B5
:1011B0000E94FA0460E08EE00E941B0261E084E07D
:1011C0000E941B0261E088E00E941B020E94E90469
:1011D00060E081E00E94B5046EE471E08AE093E093
:1011E0000E94190560E084E00E94B50461E571E0A9
:1011F0008AE093E00E94190560E08BE00E94B5044C
:1012000067E571E08AE093E00E94190561E081E002
:101210000E94B5046CE571E08AE093E00E94190534
:1012200061E084E00E94B50461E571E08AE093E04A
:101230000E94190561E08CE00E94B5046FE571E041
:101240008AE093E00E94190561E08EE00E94B504F7
:1012500060E08AE093E00E94F40461E08FE00E9485
:10126000B50462E671E08AE093E00E94190597E612
:10127000E92E91E0F92E9E012F5F3F4F69012AE090
:10128000422E512C612C712C2FB7F8948091390289
:1012900090913A02A0913B02B0913C022FBF409145
:1012A0005D0250915E0260915F0270916002841B4A
:1012B000950BA60BB70BC397A105B10508F4FBC0AE
:1012C00060E080E00E94B50441E060E28AE093E0E3
:1012D0000E949E0461E080E00E94B50441E060E26B
:1012E0008AE093E00E949E0460E084E00E94B504DE
:1012F0008090550290905602092C000CAA08BB0859
:10130000B7FEE6C06DE281E692E00E942E01222740
:101310003327A901281939094A095B0919A28E0145
:101320000F5D1F4FCA01B901A30192010E94A60AD5
:10133000605DF80162938F0121153105410551056A
:1013400089F70115110529F0B80181E692E00E94A4
:10135000190564E671E081E692E00E94190580912A
:101360005502909156026CE370E00E94920A9F939E
:101370008F937F936F93FF92EF92DF92CF920E94B1
:10138000E20AB6018AE093E00E94190561E084E078
:101390000E94B50480914D0290914E026CE370E082
:1013A0000E94920A9F938F937F936F93FF92EF9285
:1013B000DF92CF920E94E20AB6018AE093E00E9497
:1013C0001905809149020E94C4010FB6F894DEBF4E
:1013D0000FBECDBF892B61F480914C02813041F466
:1013E00080913F029091400290933E0280933D0293
:1013F000A0903D02B0903E02F501EE0FFF1FE85EA7
:10140000FE4F00811181809147020E94C401382E55
:1014100080914A02831509F1809148020E94C4011B
:10142000F80120813181468157813816190609F467
:1014300065C0C901840F951F918380832281338108
:101440002817390754F444815581241B350B2F5F2D
:101450003F4F821B930B9183808330924A0280918D
:1014600048020E94C40180934B02809149020E946D
:10147000C40180934C02AB2859F460913F0280E094
:101480000E94B50441E06EE38AE093E00E949E046E
:101490002FB7F8948091390290913A02A0913B02C3
:1014A000B0913C022FBF80935D0290935E02A093A7
:1014B0005F02B093600220E030E0232B09F4E4CE19
:1014C0000E94F800882309F4DFCE0E940000DCCEE1
:1014D000A501940119A28E010F5D1F4FCA01B90128
:1014E000A30192010E94A60A605DF80162938F0138
:1014F000211531054105510589F723CFC901841B09
:10150000950B9183808344815581841795070CF056
:10151000A4CF22813381241B350B2F5F3F4F820FD5
:10152000931F99CF97FB072E16F4009407D077FDF1
:1015300009D00E94C80A07FC05D03EF49095819519
:101540009F4F0895709561957F4F0895A1E21A2EDF
:10155000AA1BBB1BFD010DC0AA1FBB1FEE1FFF1F57
:10156000A217B307E407F50720F0A21BB30BE40BA7
:10157000F50B661F771F881F991F1A9469F76095EE
:101580007095809590959B01AC01BD01CF010895A8
:10159000AA1BBB1B51E107C0AA1FBB1FA617B70799
:1015A00010F0A61BB70B881F991F5A95A9F78095B5
:1015B0009095BC01CD010895EE0FFF1F0590F491A9
:1015C000E02D0994AEE0B0E0E8EEFAE00C94910D65
:1015D0000D891E8986E08C831A8309838FEF9FE72C
:1015E0009E838D83AE01475E5F4F6F89788DCE01FC
:1015F00001960E94050B2F813885020F131FF801F9
:1016000010822E96E4E00C94AD0DABE0B0E0EBE080
:10161000FBE00C94830D7C013B018A01FC011782E5
:101620001682838181FFC8C1CE0101965C01F7015A
:101630009381F30193FD859193FF81913F0188236D
:1016400009F453C1853239F493FD859193FF81915B
:101650003F01853229F4B70190E00E94F50CE7CFF5
:10166000912C212C312CFFE1F31538F08B3211F144
:1016700090F4803209F1833229F137FC3CC020ED2F
:10168000280F2A3050F536FE20C08AE0989E200DA3
:101690001124922E06C08D3291F0803371F7689438
:1016A00030F8F30193FD859193FF81913F01811102
:1016B000DACF21C0689431F8689432F8F2CF689498
:1016C00033F8EFCF689434F8ECCFEAE02E9E200D8B
:1016D0001124222E689435F8E4CF8E3229F436FC9A
:1016E00004C1689436F8DDCF8C3619F4689437F865
:1016F000D8CF8836B1F2982F9F7D95549330E0F083
:101700008336A1F18337C1F1833509F063C0280125
:10171000F2E04F0E511CF801C080D180692D70E0BD
:1017200036FC02C06FEF7FEFC6010E94DF0C4C0158
:10173000689437F882010AC00C5F1F4FFFE3F983FA
:1017400088248394912C6501E89437F833FE2DC0EA
:10175000522C8114910471F5552009F468CFB7011A
:1017600080E290E00E94F50C5A94F6CFF801808157
:1017700089830E5F1F4FE4CF2801F2E04F0E511C0A
:10178000F801C080D180692D70E036FC02C06FEF97
:101790007FEFC6010E94EA0C4C018201D5CFB70150
:1017A00080E290E00E94F50C2A942814190409F0B4
:1017B000B0F7CECFF60137FC859137FE81916F01EE
:1017C000B70190E00E94F50C51105A94F1E08F1A85
:1017D0009108BFCF843619F0893609F077C0F80137
:1017E00037FE6BC060817181828193810C5F1F4FD6
:1017F000F32DFF763F2E97FF09C090958095709549
:1018000061957F4F8F4F9F4F689437F82AE030E003
:10181000A5010E94250DC82ECA188C2C432C36FE1B
:101820000CC0E89440F8C91440F434FE05C032FC02
:1018300003C0F32DFE7E4F2E892C44FE95C0FE0181
:10184000EC0DF11D8081803309F087C0242D297EA5
:10185000422E842D8870582E43FC95C040FE8FC0C8
:101860009C2C821418F42C0C922C981844FE91C0D5
:10187000B70180E390E00E94F50C42FE09C088E7C2
:1018800090E041FE02C088E590E0B7010E94F50CAF
:10189000C91408F48AC0CA94D12C9FEFC91AD90A76
:1018A000CA0CDB1CF60182916F01B70190E00E9427
:1018B000F50CAC14BD04B1F74FCF60817181072ED8
:1018C000000C880B990B0E5F1F4F92CFD32CE8941E
:1018D000D4F82AE030E0853739F1232D297FD22E44
:1018E0008F3601F148F48835A9F0F7018681978198
:1018F0002B96E2E10C949F0D803749F08837A9F7C9
:10190000D4FE02C06894D2F820E130E00DC06894A3
:10191000D4F8F6CF34FE03C0822F8660D82E20E1A3
:1019200032E002C028E030E0F801D7FE0FC060814D
:101930007181828193810C5F1F4FA5010E94250D4B
:10194000C82ECA183D2CE89437F867CF60817181A2
:1019500090E080E00E5F1F4FF0CF42FC02C0839406
:1019600078CF8394839475CF842D867809F471CFD2
:10197000F6CFB70180E290E00E94F50C83948214C8
:10198000C0F3512C73CF522C5818821408F46ECF28
:10199000F8CF842D867809F47BCF8BE241FE80E27C
:1019A00047FC8DE2B70190E071CFB70180E390E092
:1019B0000E94F50C9A946CCF8FEF9FEF99CFFC01AA
:1019C0000590615070400110D8F7809590958E0F6A
:1019D0009F1F0895FC016150704001900110D8F7DD
:1019E000809590958E0F9F1F08950F931F93CF930F
:1019F000DF93182F092FEB018B8181FD09C01FEFA9
:101A00000FEF812F902FDF91CF911F910F910895AC
:101A100082FF14C02E813F818C819D812817390758
:101A20003CF4E881F981CF01019699838883108382
:101A30008E819F8101969F838E83E3CFE885F98510
:101A4000812F0995892BA1F3DACFFA01AA27283033
:101A500051F1203181F1E8946F936E7F6E5F7F4F7B
:101A60008F4F9F4FAF4FB1E03ED0B4E03CD0670FF7
:101A7000781F891F9A1FA11D680F791F8A1F911D4A
:101A8000A11D6A0F711D811D911DA11D20D009F49A
:101A900068943F912AE0269F11243019305D3193DC
:101AA000DEF6CF010895462F4770405D4193B3E0C5
:101AB0000FD0C9F7F6CF462F4F70405D4A3318F06C
:101AC000495D31FD4052419302D0A9F7EACFB4E01D
:101AD000A6959795879577956795BA95C9F70097D5
:101AE0006105710508959B01AC010A2E0694579576
:101AF000479537952795BA95C9F7620F731F841FCD
:101B0000951FA01D08952F923F924F925F926F9262
:101B10007F928F929F92AF92BF92CF92DF92EF927D
:101B2000FF920F931F93CF93DF93CDB7DEB7CA1BFE
:101B3000DB0B0FB6F894DEBF0FBECDBF09942A8829
:101B4000398848885F846E847D848C849B84AA84D1
:101B5000B984C884DF80EE80FD800C811B81AA815E
:101B6000B981CE0FD11D0FB6F894DEBF0FBECDBF29
:101B7000ED010895F894FFCF000000000000001F61
:101B80000609060000000000000040001400540098
:101B900055024D023F02000000002E018E00BB00E6
:101BA0007B01EC00CA00DE00000000006C033F0374
:101BB0008204150338032503160300000000F40413
:101BC0008E008204AE0254310030303A303000547E
:101BD000656D700054320032350043000D0A002557
:0A1BE0003032643A25303264000010
:107E0000112484B714BE81FFF0D085E080938100F7
:107E100082E08093C00088E18093C10086E0809377
:107E2000C20080E18093C4008EE0C9D0259A86E02C
:107E300020E33CEF91E0309385002093840096BBD3
:107E4000B09BFECF1D9AA8958150A9F7CC24DD24C4
:107E500088248394B5E0AB2EA1E19A2EF3E0BF2EE7
:107E6000A2D0813461F49FD0082FAFD0023811F036
:107E7000013811F484E001C083E08DD089C08234E0
:107E800011F484E103C0853419F485E0A6D080C0E4
:107E9000853579F488D0E82EFF2485D0082F10E0AE
:107EA000102F00270E291F29000F111F8ED06801E7
:107EB0006FC0863521F484E090D080E0DECF843638
:107EC00009F040C070D06FD0082F6DD080E0C81688
:107ED00080E7D80618F4F601B7BEE895C0E0D1E017
:107EE00062D089930C17E1F7F0E0CF16F0E7DF06D8
:107EF00018F0F601B7BEE89568D007B600FCFDCFD4
:107F0000A601A0E0B1E02C9130E011968C91119780
:107F100090E0982F8827822B932B1296FA010C0160
:107F200087BEE89511244E5F5F4FF1E0A038BF0790
:107F300051F7F601A7BEE89507B600FCFDCF97BE46
:107F4000E89526C08437B1F42ED02DD0F82E2BD052
:107F50003CD0F601EF2C8F010F5F1F4F84911BD097
:107F6000EA94F801C1F70894C11CD11CFA94CF0C13
:107F7000D11C0EC0853739F428D08EE10CD085E9AC
:107F80000AD08FE07ACF813511F488E018D01DD067
:107F900080E101D065CF982F8091C00085FFFCCF94
:107FA0009093C60008958091C00087FFFCCF809118
:107FB000C00084FD01C0A8958091C6000895E0E648
:107FC000F0E098E1908380830895EDDF803219F02E
:107FD00088E0F5DFFFCF84E1DECF1F93182FE3DFCA
:107FE0001150E9F7F2DF1F91089580E0E8DFEE27F6
:047FF000FF270994CA
:027FFE00040479
:00000001FF
