:020000040000FA
:100000000C9462000C948A000C948A000C94B20741
:100010000C948A000C948A000C948A000C948A0038
:100020000C948A000C948A000C948A000C948A0028
:100030000C948A000C948A000C948A000C948A0018
:100040000C9449060C948A000C9417060C94F10544
:100050000C948A000C948A000C948A000C948A00F8
:100060000C9493060C948A000000000024002700E2
:100070002A0000000000250028002B0000000000DE
:1000800023002600290004040404040404040202DA
:100090000202020203030303030301020408102007
:1000A0004080010204081020010204081020000012
:1000B0000008000201000003040700000000000027
:1000C0000000C20811241FBECFEFD8E0DEBFCDBFB5
:1000D00011E0A0E0B1E0E6EDFFE102C005900D9275
:1000E000AC38B107D9F723E0ACE8B1E001C01D920C
:1000F000A033B207E1F710E0C2E6D0E004C02197D8
:10010000FE010E94D40FC136D107C9F70E940A0927
:100110000C94E90F0C94000008950895AF92BF92DB
:10012000CF92DF92EF92FF920F931F93CF93DF93C3
:100130006C017B018B01040F151FEB015E01AE18F2
:10014000BF08C017D10759F06991D601ED91FC9114
:100150000190F081E02DC6010995892B79F7C50141
:10016000DF91CF911F910F91FF90EF90DF90CF9093
:10017000BF90AF900895FC01538D448D252F30E042
:10018000842F90E0821B930B541710F0CF960895A4
:1001900001970895FC01918D828D981761F0A28DD1
:1001A000AE0FBF2FB11D5D968C91928D9F5F9F7397
:1001B000928F90E008958FEF9FEF0895FC01918D4D
:1001C000828D981731F0828DE80FF11D858D90E0BA
:1001D00008958FEF9FEF0895FC01918D228D892F57
:1001E00090E0805C9F4F821B91098F73992708953F
:1001F0008BE792E00E94EC0021E0892B09F420E0DB
:10020000822F089580E090E0892B29F00E94F80069
:1002100081110C9400000895FC01A48DA80FB92F42
:10022000B11DA35ABF4F2C91848D90E001968F731E
:100230009927848FA689B7892C93A089B1898C913D
:10024000837080648C93938D848D981306C002888C
:10025000F389E02D80818F7D80830895EF92FF9256
:100260000F931F93CF93DF93EC0181E0888F9B8DD9
:100270008C8D98131AC0E889F989808185FF15C093
:100280009FB7F894EE89FF896083E889F9898081B6
:100290008370806480839FBF81E090E0DF91CF9185
:1002A0001F910F91FF90EF900895F62E0B8D10E0A7
:1002B0000F5F1F4F0F731127E02E8C8D8E110CC016
:1002C0000FB607FCFACFE889F989808185FFF5CF61
:1002D000CE010E940C01F1CFEB8DEC0FFD2FF11D33
:1002E000E35AFF4FF0829FB7F8940B8FEA89FB899E
:1002F00080818062CFCFCF93DF93EC01888D8823FC
:10030000B9F0AA89BB89E889F9898C9185FD03C078
:10031000808186FD0DC00FB607FCF7CF8C9185FF5D
:10032000F2CF808185FFEDCFCE010E940C01E9CF95
:10033000DF91CF910895833081F028F4813099F0D6
:100340008230A9F008958730A9F08830C9F0843050
:10035000B1F4809180008F7D03C0809180008F7701
:1003600080938000089584B58F7784BD089584B507
:100370008F7DFBCF8091B0008F778093B000089580
:100380008091B0008F7DF9CFCF93DF93282F30E09D
:10039000F901E255FF4F8491F901E656FF4FD491E0
:1003A000F901EA57FF4FC491CC23A1F081110E94BB
:1003B0009B01EC2FF0E0EE0FFF1FE458FF4FA591DB
:1003C000B491EC91ED2381E090E009F480E0DF91BD
:1003D000CF91089580E090E0FACF1F93CF93DF9301
:1003E000282F30E0F901E255FF4F8491F901E656DC
:1003F000FF4FD491F901EA57FF4FC491CC23A9F0E4
:10040000162F81110E949B01EC2FF0E0EE0FFF1FD1
:10041000EE58FF4FA591B4918FB7F894EC9111115C
:1004200008C0D095DE23DC938FBFDF91CF911F9161
:100430000895DE2BF8CFCF93DF9390E0FC01E656D2
:10044000FF4F24918A579F4FFC0184918823C9F064
:1004500090E0880F991FFC01E859FF4FA591B491D6
:10046000FC01EE58FF4FC591D49161110DC09FB7AB
:10047000F8948C91209582238C938881282328835B
:100480009FBFDF91CF910895623051F49FB7F894E8
:100490003C91822F809583238C93E8812E2BEFCF84
:1004A0008FB7F894EC912E2B2C938FBFEACF3FB7E8
:1004B000F8948091460290914702A0914802B09131
:1004C000490226B5A89B05C02F3F19F00196A11D32
:1004D000B11D3FBFBA2FA92F982F8827BC01CD018E
:1004E000620F711D811D911D42E0660F771F881FED
:1004F000991F4A95D1F708958F929F92AF92BF921C
:10050000CF92DF92EF92FF924B015C010E94570263
:100510006B017C010E9457026C197D098E099F09AD
:10052000683E734081059105A8F321E0821A910885
:10053000A108B10888EEC80E83E0D81EE11CF11CAA
:1005400081149104A104B10429F7FF90EF90DF908A
:10055000CF90BF90AF909F908F9008950895209175
:10056000D001260F3327331F21323105ECF42091BF
:100570001902FC0190E080E0243069F082E00895E7
:10058000A091D0012191AC0140555E4FA40FB52F31
:10059000B11D2C930196861798F38091D001680FB6
:1005A0006093D00180E0089581E0089510921902CF
:1005B00081E0809318021092F30161E082E10E94D1
:1005C000ED0161E083E10E94ED01E9EBF0E0808163
:1005D0008E7F808380818D7F808388E48093B800C4
:1005E00085E48093BC000895CF93DF9391E09093CE
:1005F000AF018823B9F0C091B800D091BA008091C2
:10060000BC008A7B8093BC0060E082E10E94ED0127
:1006100060E083E10E94ED010E94D602D093BA000F
:10062000C093B800DF91CF9108950895E0915102F1
:1006300080915002E81730F4F0E0E157FE4F8081DE
:1006400090E008958FEF9FEF08959091510280916F
:1006500050022FEF3FEF981748F4E92FF0E0E157F1
:10066000FE4F208130E09F5F90935102C9010895B1
:100670008091500290915102891B990B0895CF925D
:10068000DF92EF92FF920F931F93CF93DF937C0142
:10069000CB018A0120911F02222389F0EB016B011B
:1006A000C40ED51ECC15DD0569F06991D701ED9119
:1006B000FC910190F081E02DC7010995F3CF642FE3
:1006C0000E94AF02C801DF91CF911F910F91FF905F
:1006D000EF90DF90CF900895CF93DF931F92CDB727
:1006E000DEB7698320911F022223F9F020914E0288
:1006F000203258F021E030E0FC013383228390E087
:1007000080E00F90DF91CF91089580914F02E82F04
:10071000F0E0E05EFD4F998190838F5F80934F0200
:1007200080934E0281E090E0ECCF61E0CE01019633
:100730000E94AF02F7CFCF92DF92EF92FF920F931A
:100740001F93CF93DF93FC01C48121E020931F020C
:10075000C093400210924F0210924E028385682B84
:1007600088E193E00E946C03D0914E02D13208F0F0
:1007700092C00E9457026B017C0180911902811185
:1007800065C082E08093190281E0809318028FEFA8
:100790008093170210921602D0931502A0E2B2E0E5
:1007A000E5EFF1E080E0D81385C01092F40180916C
:1007B000F401CC0FC82BC093F4018091F301813078
:1007C00009F07CC01092F3010E9457026B017C017A
:1007D0008091F4018093BB0080911B0290911C02D8
:1007E000A0911D02B0911E02892B8A2B8B2B99F0B0
:1007F0000E94570200911B0210911C0220911D02C1
:1008000030911E026C197D098E099F090617170782
:1008100028073907E0F18091BC0083FDD9CF85EC32
:100820008093BC000E9457026B017C0180911902E9
:10083000823009F445C0809117028F3F61F18091A9
:100840001702803241F18091170225C080911B026E
:1008500090911C02A0911D02B0911E02892B8A2B3F
:100860008B2B09F48ACF0E94570200911B02109132
:100870001C0220911D0230911E026C197D098E0907
:100880009F09061717072807390708F076CF8091C8
:100890001A020E94F40210924F0210924E0210921D
:1008A0001F02DF91CF911F910F91FF90EF90DF908A
:1008B000CF9008959D9191938F5F75CF85EEB0CFC6
:1008C00080911B0290911C02A0911D02B0911E020A
:1008D000892B8A2B8B2B09F4A9CF0E9457020091F8
:1008E0001B0210911C0220911D0230911E026C19F6
:1008F0007D098E099F09061717072807390708F091
:1009000095CFC5CF90E080E00895CF93DF93C82FB7
:1009100089E00E94C401D82F80938C0180915202FB
:100920008D1739F08AE00E94C401D817190639F0F2
:10093000CF5FD09352028C2FDF91CF910895C15099
:10094000F8CF0F931F93CF938C01C62F0E949B0368
:100950006C2F6460C8010E949B036C2F6B7FC801E1
:100960000E949B0383EC90E00197F1F7CF911F91D8
:100970000F910895CF93C82F682F607F84E293E092
:100980000E94A10480E1C89FB001112484E293E099
:10099000CF910C94A104CF93DF93CDB7DEB7289706
:1009A0000FB6F894DEBF0FBECDBF98E0ECE2F1E0E9
:1009B000DE01119601900D929A95E1F790912C032A
:1009C000961710F46FEF690F70E0660F771F21E044
:1009D00030E02C0F3D1F620F731FFB019081890FC8
:1009E000806828960FB6F894DEBF0FBECDBFDF91AA
:1009F000CF910C94BA0481E00E94BA048BE39FE18A
:100A00000197F1F708950F931F93CF938C01C62F91
:100A1000607F61600E94A10480E1C89FB001112441
:100A20006160C8010E94A10481E090E0CF911F9114
:100A30000F9108950F931F93CF93DF938B0128E0BD
:100A4000829FC001112480640E94BA04E801085FFB
:100A50001F4F699184E293E00E940305C017D107FC
:100A6000C1F7DF91CF911F910F910895FB01019084
:100A70000020E9F73197AF01461B570BDC01ED91E0
:100A8000FC910280F381E02D09948F929F92AF92A6
:100A9000BF92EF92FF920F931F93CF93DF93CDB747
:100AA000DEB7A1970FB6F894DEBF0FBECDBF7C01B5
:100AB000FA01CB0119A2223008F42AE08E010F5D61
:100AC0001F4F822E912CB12CA12CBF01A5019401A6
:100AD0000E94A70FF901CA016A300CF5605DD801C8
:100AE0006E938D01232B242B252B79F790E080E04A
:100AF000109721F0BD01C7010E943605A1960FB6DF
:100B0000F894DEBF0FBECDBFDF91CF911F910F9143
:100B1000FF90EF90BF90AF909F908F900895695C89
:100B2000DECFCF93DF93AC01990F660B770B2AE0F2
:100B30008BE792E00E944505EC0164E671E08BE7EB
:100B400092E00E9436058C0F9D1FDF91CF91089592
:100B50002AE00C944505482F50E070E060E02AE060
:100B600084E293E00C944505BC0184E293E00C948C
:100B7000360585ED8093BC0080911B0290911C028C
:100B8000A0911D02B0911E020796A11DB11D23E088
:100B9000B695A795979587952A95D1F72091BC0092
:100BA00024FD03C010921902089540911B02509138
:100BB0001C0260911D0270911E02452B462B472B93
:100BC00069F30097A105B10541F02AE22A95F1F7F2
:100BD00000C00197A109B109E1CF80911A020C94DC
:100BE000F4021F920F920FB60F9211242F933F938E
:100BF0004F935F936F937F938F939F93AF93BF9325
:100C0000EF93FF938BE792E00E940C01FF91EF912D
:100C1000BF91AF919F918F917F916F915F914F9114
:100C20003F912F910F900FBE0F901F9018951F921C
:100C30000F920FB60F9211242F938F939F93EF93E0
:100C4000FF93E0918B02F0918C028081E091910200
:100C5000F091920282FD1BC09081809194028F5F7F
:100C60008F7320919502821741F0E0919402F0E099
:100C7000E558FD4F958F80939402FF91EF919F91DE
:100C80008F912F910F900FBE0F901F90189580811C
:100C9000F4CF1F920F920FB60F9211242F933F9310
:100CA0008F939F93AF93BF938091420290914302A1
:100CB000A0914402B09145023091410223E0230FFC
:100CC0002D3758F50196A11DB11D20934102809347
:100CD000420290934302A0934402B0934502809154
:100CE000460290914702A0914802B09149020196B4
:100CF000A11DB11D8093460290934702A093480224
:100D0000B0934902BF91AF919F918F913F912F91E5
:100D10000F900FBE0F901F90189526E8230F029694
:100D2000A11DB11DD2CF1F920F920FB60F921124A9
:100D30002F933F934F935F936F937F938F939F93E3
:100D4000AF93BF93EF93FF938091B900887F803674
:100D500009F44AC0F0F5883209F4A7C018F58031CB
:100D600009F49BC0B8F4882309F4F9C0883009F469
:100D700094C0FF91EF91BF91AF919F918F917F911F
:100D80006F915F914F913F912F910F900FBE0F90F8
:100D90001F901895883109F488C0803251F78093EC
:100DA000170214C0803409F49DC040F48033B9F3B5
:100DB0008833F9F68093170285ECB0C0803509F4CA
:100DC00085C0883509F496C0883499F60E94B90523
:100DD000D0CF883909F48CC038F5883729F050F421
:100DE000883611F0803729F683E08093190210923B
:100DF000F20157C0883809F47BC0803919F0803877
:100E000009F0B7CF8091F201803208F071C0E09113
:100E1000F20181E08E0F8093F2018091BB00F0E03F
:100E2000EE52FE4F80833DC0803B39F0E0F4803AC3
:100E300009F479C0883A09F09CCF84E080931902C4
:100E40001092D1011092D001E0914C02F0914D022C
:100E500009958091D00181110FC081E08093D0016C
:100E60001092B00109C0803C09F4A6CF883C09F477
:100E7000A3CF883B09F07DCFE091D10181E08E0FB7
:100E80008093D101F0E0E055FE4F80818093BB005C
:100E90009091D1018091D00129C08091F40180937B
:100EA000BB0085EC8093BC0064CF909116028091CA
:100EB0001502981758F5E091160281E08E0F809385
:100EC0001602F0E0EB50FE4F8081E9CFE091160270
:100ED00081E08E0F809316028091BB00F0E0EB5012
:100EE000FE4F808390911602809115029817C8F2E8
:100EF00085E8D8CFE091160281E08E0F809316022C
:100F00008091BB00F0E0EB50FE4F8083809118028F
:100F100081115CCF81E08093F30184EA8093BC006F
:100F20001092190226CF85EC8093BC001092190212
:100F30008091F201803230F4E091F201F0E0EE5263
:100F4000FE4F10826091F20170E0E0914A02F09150
:100F50004B0282ED91E009951092F2010ACF1092B6
:100F6000170234CF1F920F920FB60F9211242F93B6
:100F70003F934F935F936F937F938F939F93AF9321
:100F8000BF93CF93EF93FF938BE00E94C4018093B4
:100F90008E01811138C080918E0181110AC086E0D6
:100FA00090E00E9491058BE00E94C40180938E0125
:100FB000F2CF8091770290917802A0917902B0915E
:100FC0007A020196A11DB11D809377029093780259
:100FD000A0937902B0937A02209175022A3099F495
:100FE00083309105A105B10570F0B695A795979549
:100FF0008795809376021092770210927802109271
:10100000790210927A0289E00E94C40121E00197DE
:1010100039F08AE00E94C40121E0892B09F420E024
:10102000C0917502C13041F4222331F080917402E5
:101030000E9485048093740289E00E94C40121E02B
:10104000019739F08AE00E94C40121E0892B09F45C
:1010500020E0C23029F4222319F086E08093760242
:1010600089E00E94C40121E0019739F08AE00E94E2
:10107000C40121E0892B09F420E0C33079F4222354
:1010800069F080916E020E94850480936E029BEA53
:10109000899F812D1124869580936F0289E00E949B
:1010A000C40121E0019739F08AE00E94C40121E0E7
:1010B000892B09F420E08CEF8C0F823078F4222306
:1010C00069F080915C020E94850480935C029BEA37
:1010D000899F812D1124869580935D0289E00E946D
:1010E000C40121E0019739F08AE00E94C40121E0A7
:1010F000892B09F420E0C63099F4222389F08091ED
:1011000000010E94850480930001909111018917CC
:1011100039F09817A8F59B5F909300019093110107
:1011200089E00E94C40121E0019739F08AE00E9421
:10113000C40121E0892B09F420E0CA3079F422238C
:1011400069F080918D010E94850480938D018091CA
:10115000700290917102890F80935B02FF91EF9171
:10116000CF91BF91AF919F918F917F916F915F913F
:101170004F913F912F910F900FBE0F901F90189598
:101180009550CACFEBE7F2E01382128288EE93E02B
:10119000A0E0B0E084839583A683B78328E331E0A1
:1011A0003183208325EC30E03587248724EC30E040
:1011B0003787268720EC30E0318B208B21EC30E024
:1011C000338B228B22EC30E0358B248B26EC30E005
:1011D000378B268B118E128E138E148EE8E1F3E07E
:1011E0001382128284839583A683B7838AE491E075
:1011F00091838083E4E2F3E0138212828CE591E034
:101200009183808387E2848384E1818784E082877D
:1012100013860895789484B5826084BD84B5816016
:1012200084BD85B5826085BD85B5816085BD8091B1
:101230006E00816080936E00109281008091810029
:101240008260809381008091810081608093810021
:10125000809180008160809380008091B1008460E3
:101260008093B1008091B00081608093B000809144
:101270007A00846080937A0080917A008260809303
:101280007A0080917A00816080937A0080917A0060
:10129000806880937A001092C100E0918B02F091F7
:1012A0008C0282E08083E0918702F09188021082B4
:1012B000E0918902F0918A028FEC80831092930270
:1012C000E0918F02F091900286E08083E0918D02A0
:1012D000F0918E02808180618083E0918D02F09197
:1012E0008E02808188608083E0918D02F0918E0271
:1012F000808180688083E0918D02F0918E028081F0
:101300008F7D8083109251021092500210924F02F2
:1013100010924E020E94D6028CE890E090934D020B
:1013200080934C028DE890E090934B0280934A02A8
:101330001092290380912E03823018F098E0909348
:10134000290380932C0362E370E080E090E00E9428
:101350007C0260912F0384E293E00E949B0368EE7D
:1013600073E080E090E00E947C0260E384E293E01E
:101370000E94A104CBE4D6E4CE010197F1F760E32B
:1013800084E293E00E94A1042197F1F760E384E2F4
:1013900093E00E94A10483E592E00197F1F760E2F7
:1013A00084E293E00E94A1048091290380620E945C
:1013B000BA0484E080932A038CE00E94BA040E945D
:1013C000FB0482E080932B0386E00E94BA0482E053
:1013D0000E94BA048BE39FE10197F1F788E08093C4
:1013E0002F0360E084E293E00E949B030E94FB04D1
:1013F00069E071E080E00E941A0561E071E081E03F
:101400000E941A0563E572E082E00E941A0561E01D
:101410008DE00E941B0260E089E00E941B0260E0F8
:101420008AE00E941B0262E08BE00E941B02809116
:10143000680081608093680080916B008E6080936B
:101440006B0089E00E94C4018093520260E08EE04C
:101450000E941B0261E084E00E941B0261E088E0C0
:101460000E941B020E94FB0460E084E00E94CB0407
:1014700087E691E00E94B4056EEE72E080E090E0B5
:101480000E947C020E94FB0460E971E080E090E031
:101490000E947C0260E084E00E94CB0487E691E039
:1014A0000E94B4056EEE72E080E090E00E947C0243
:1014B0000E94FB0460E971E080E090E00E947C0201
:1014C00060E081E00E94CB048FE691E00E94B405C9
:1014D00060E084E00E94CB0482E791E00E94B405C2
:1014E00060E08BE00E94CB0488E791E00E94B405A5
:1014F00061E081E00E94CB048DE791E00E94B40599
:1015000061E084E00E94CB0482E791E00E94B40590
:1015100061E08CE00E94CB0480E891E00E94B40579
:1015200061E08EE00E94CB0460E084E293E00E94E0
:10153000030561E08FE00E94CB0483E891E00E9404
:10154000B405ECE3CE2ED12CE12CF12C00E010E020
:10155000F6E06F2E992493948824839474E6772E72
:1015600040917702509178026091790270917A02ED
:101570002AE08BE792E00E94450564E671E08BE784
:1015800092E00E9436058091770290917802A091B6
:101590007902B0917A02892B8A2B8B2B69F080918A
:1015A00076028F5F80937602109277021092780213
:1015B0001092790210927A02809176028695809339
:1015C0007502833009F4E9C048F5813009F4A1C0FF
:1015D000823061F581E090E00E9491058091770270
:1015E00090917802A0917902B0917A02892B8A2B8E
:1015F0008B2B71F0E0917302F0E0E059FD4F908287
:1016000010927702109278021092790210927A0268
:1016100080917602869580937502DACF853009F441
:1016200077C208F4C6C1863009F44AC380917502B6
:101630008A3009F080C410925B02E091120144E00C
:10164000E49FF0011124EC5EFE4F60817181828184
:1016500093812CE3C22ED12CE12CF12CA701960111
:101660000E94A70F2093660230936702409368029E
:101670005093690260935E0270935F0280936002F0
:1016800090936102E091130184E0E89FF00111243E
:10169000EC5EFE4F6081718182819381A70196018A
:1016A0000E94A70F20936A0230936B0240936C0252
:1016B00050936D02609362027093630280936402A0
:1016C00090936502C0917302D1E0CC2311F0D0E079
:1016D000C1E094E0C99F80011124025A1D4F780196
:1016E000CD2ED12CCC0CDD1CCC0CDD1CD601A25A8D
:1016F000BD4F6D0180915B02813009F468C3823077
:1017000009F4A7C367EE73E080E090E00E947C02DA
:10171000F1CF90E080E00E949105809174020E94D8
:101720008504809374026091730280E00E94CB0470
:1017300085E891E00E94B405809174029091720254
:10174000891749F091E020917302211190E0909364
:101750007302809372028091770290917802A09137
:101760007902B0917A02892B8A2B8B2B69F08091B8
:1017700076028F5F80937602109277021092780241
:101780001092790210927A02809176028695809367
:101790007502813009F4BDCF49CF6091730281E0B9
:1017A000860F80936F0280E00E94CB0485E891E071
:1017B0000E94B40580916F028093720282E090E0F3
:1017C0000E949105C09173026C2F82E00E94CB04AD
:1017D00080912A03982F926090932A038A600E9436
:1017E000BA046AEF70E080E090E00E947C026C2F07
:1017F00082E00E94CB0480912A038D7F80932A038C
:1018000088600E94BA046AEF70E080E090E00E9475
:101810007C0280916F0290917202891709F48DC049
:101820009091740290937202873008F4B0C043E044
:1018300040936E0280926F026C2F82E00E94CB0474
:1018400080916F020E94AB05E0916F02E150FF0BA7
:10185000EE0FFF1FEE0FFF1FEC5EFE4F60817181E8
:1018600082819381C0917302A70196010E94A70F04
:1018700019012A01A4E0CA9F90011124F901EA5933
:10188000FD4F2082318242825382F901E25AFD4F9C
:1018900060837183828393836C2F84E0BAE02B167C
:1018A00031044104510408F07AC00E94CB0486E759
:1018B00091E00E94B405C09173026C2F85E00E94F4
:1018C000CB0444E0C49FF0011124EA59FD4F40814C
:1018D00051816281738184E293E00E94A805609146
:1018E000730284E0689FF0011124E25AFD4F2080CA
:1018F00031804280538087E09AE029163104410408
:10190000510408F051C00E94CB0486E791E00E9488
:10191000B405C09173026C2F88E00E94CB04A4E050
:10192000CA9FF0011124E25AFD4F4081518162812A
:10193000738184E293E00E94A805809177029091E0
:101940007802A0917902B0917A02892B8A2B8B2B95
:1019500069F0809176028F5F809376021092770211
:10196000109278021092790210927A028091760297
:10197000869580937502833009F420CFE09173023D
:10198000F0E0EE5EFE4F80916F0280834FCE8111BA
:1019900053CF82E180936E0260926F024DCF0E941E
:1019A000CB04B201A10197CF0E94CB04B201A101E7
:1019B000C0CFE0916F02E150FF0BEE0FFF1FEE0F63
:1019C000FF1FEC5EFE4F6081718182819381A701D0
:1019D00096010E94A70F20935D0283E090E00E9491
:1019E0009105D0915D02C0917302DA3008F06BC0AE
:1019F0006C2F84E00E94CB0461E084E293E00E94BB
:101A000003056C2F85E00E94CB0461E084E293E043
:101A10000E9403056AEF70E080E090E00E947C0283
:101A20006C2F84E00E94CB0486E791E00E94B4050D
:101A30006091730285E00E94CB0480915D020E9458
:101A4000AB056091730286E00E94CB0487E891E0C9
:101A50000E94B4056AEF70E080E090E00E947C0292
:101A6000E0917302B4E0EB9FF0011124EA59FD4FBD
:101A700080915D0290E0B0E0A0E080839183A2833A
:101A8000B3838091770290917802A0917902B0910E
:101A90007A02892B8A2B8B2B69F0809176028F5FDB
:101AA0008093760210927702109278021092790257
:101AB00010927A0280917602869580937502843026
:101AC00009F48BCFB3CDDD33F0F46C2F84E00E94AA
:101AD000CB0461E084E293E00E9403056C2F85E073
:101AE0000E94CB0461E084E293E00E9403056AEF68
:101AF00070E080E090E00E947C026C2F84E00E9405
:101B0000CB048D2F9CCF10925C0210925D02A8CF67
:101B1000E0916F02E150FF0BEE0FFF1FEE0FFF1F72
:101B2000EC5EFE4F6081718182819381A7019601F5
:101B30000E94A70F60935D0284E090E00E949105EF
:101B4000C0915D02CA3008F094C0C09173026C2F3E
:101B500087E00E94CB0461E084E293E00E940305E9
:101B60006C2F88E00E94CB0461E084E293E00E9445
:101B700003056AEF70E080E090E00E947C026C2F29
:101B800087E00E94CB0486E791E00E94B405609153
:101B9000730288E00E94CB0480915D020E94AB0535
:101BA0006091730289E00E94CB0489E891E00E9471
:101BB000B4056AEF70E080E090E00E947C028091C2
:101BC000770290917802A0917902B0917A02892BE4
:101BD0008A2B8B2B69F0809176028F5F809376023F
:101BE00010927702109278021092790210927A0283
:101BF00080917602869580937502853009F49CCF9A
:101C0000C0917302E0916F02E150FF0BEE0FFF1FD6
:101C1000EE0FFF1FEC5EFE4F44E0C49FE001112475
:101C2000CE018A599D4F5C01DC012D913D914D9172
:101C30005C91ACE3B0E00E94C90F20915D02620F9D
:101C4000711D811D911D6083718382839383F501D2
:101C50001082118212821382C25ADD4F18821982B9
:101C60001A821B8264EF71E080E090E00E947C02A7
:101C7000DDCCCD3300F5D09173026D2F87E00E944B
:101C8000CB0461E084E293E00E9403056D2F88E0BD
:101C90000E94CB0461E084E293E00E9403056AEFB6
:101CA00070E080E090E00E947C026D2F87E00E944F
:101CB000CB048C2F73CF10925C0210925D027FCF09
:101CC00085E090E00E949105C091110161E08BE0F8
:101CD000C43608F057C00E94CB0489E891E00E9406
:101CE000B40561E08CE00E94CB0461E084E293E003
:101CF0000E94030561E08DE00E94CB0461E084E274
:101D000093E00E9403056AEF70E080E090E00E949B
:101D10007C0261E08CE00E94CB04809111010E9462
:101D2000AB056AEF70E080E090E00E947C02809159
:101D30001101833D10F07092110180917702909112
:101D40007802A0917902B0917A02892B8A2B8B2B91
:101D500069F0809176028F5F80937602109277020D
:101D6000109278021092790210927A028091760293
:101D7000869580937502863009F4A2CF82E0809325
:101D8000760254CC0E94CB0461E084E293E00E948E
:101D9000030561E08CE00E94CB0461E084E293E003
:101DA0000E94030561E08DE00E94CB0461E084E2C3
:101DB00093E00E9403056AEF70E080E090E00E94EB
:101DC0007C0261E08BE00E94CB048C2FA8CFF8014D
:101DD00080809180A280B380FAE08F169104A104E4
:101DE000B10450F56C2F87E00E94CB0486E791E0A8
:101DF0000E94B4056C2F88E00E94CB04D8014D915D
:101E00005D916D917C9184E293E00E94A8056C2F16
:101E100089E00E94CB0489E891E00E94B405F701B3
:101E200080819181A281B3810197A109B109808349
:101E30009183A283B38366CCBCE38B169104A10487
:101E4000B10468F76C2F87E00E94CB04B501A401B0
:101E5000DACFD8018D909D90AD90BC90BAE08B16F2
:101E60009104A104B10408F04BC06C2F87E00E94DC
:101E7000CB0486E791E00E94B4056C2F88E00E94B5
:101E8000CB04F801408151816281738184E293E047
:101E90000E94A8056C2F89E00E94CB0489E891E09C
:101EA0000E94B405F70180819181A281B3810197DD
:101EB000A109B10980839183A283B383D6018D9058
:101EC0009D90AD90BC90BAE08B169104A104B10432
:101ED00020F56D2F87E00E94CB0486E791E00E94F9
:101EE000B4056D2F88E00E94CB04F601408151813A
:101EF0006281738184E293E00E94A8056D2F88CFF0
:101F0000FCE38F169104A104B10460F66C2F87E006
:101F10000E94CB04B501A401B9CFFCE38F16910454
:101F2000A104B10408F07BCF6D2F87E00E94CB04A1
:101F3000B501A401DFCF0115110509F411CB0E94F1
:101F4000F800882309F406CB0E94000003CBA1E22D
:101F50001A2EAA1BBB1BFD010DC0AA1FBB1FEE1F23
:101F6000FF1FA217B307E407F50720F0A21BB30B6E
:101F7000E40BF50B661F771F881F991F1A9469F7EA
:101F800060957095809590959B01AC01BD01CF0146
:101F900008950E94DA0FA59F900DB49F900DA49F05
:101FA000800D911D11240895EE0FFF1F0590F491EF
:101FB000E02D0994A29FB001B39FC001A39F700DB3
:101FC000811D1124911DB29F700D811D1124911D41
:101FD0000895F894FFCF32000000000000001F06B3
:101FE00009060000000000320102800C0000000021
:101FF00000000000000000000000000000000000E1
:1020000000000000400014005400000000002E01F9
:102010008E00BB007B01EC00CA00DE000000000067
:102020006C033F03820415033803250316030000E5
:10203000000003058E008204AE020D0A0057454CD5
:10204000434F4D450054310030303A303000546534
:102050006D700054320032350043003E003A0020DB
:0220600000007E
:107E0000112484B714BE81FFF0D085E080938100F7
:107E100082E08093C00088E18093C10086E0809377
:107E2000C20080E18093C4008EE0C9D0259A86E02C
:107E300020E33CEF91E0309385002093840096BBD3
:107E4000B09BFECF1D9AA8958150A9F7CC24DD24C4
:107E500088248394B5E0AB2EA1E19A2EF3E0BF2EE7
:107E6000A2D0813461F49FD0082FAFD0023811F036
:107E7000013811F484E001C083E08DD089C08234E0
:107E800011F484E103C0853419F485E0A6D080C0E4
:107E9000853579F488D0E82EFF2485D0082F10E0AE
:107EA000102F00270E291F29000F111F8ED06801E7
:107EB0006FC0863521F484E090D080E0DECF843638
:107EC00009F040C070D06FD0082F6DD080E0C81688
:107ED00080E7D80618F4F601B7BEE895C0E0D1E017
:107EE00062D089930C17E1F7F0E0CF16F0E7DF06D8
:107EF00018F0F601B7BEE89568D007B600FCFDCFD4
:107F0000A601A0E0B1E02C9130E011968C91119780
:107F100090E0982F8827822B932B1296FA010C0160
:107F200087BEE89511244E5F5F4FF1E0A038BF0790
:107F300051F7F601A7BEE89507B600FCFDCF97BE46
:107F4000E89526C08437B1F42ED02DD0F82E2BD052
:107F50003CD0F601EF2C8F010F5F1F4F84911BD097
:107F6000EA94F801C1F70894C11CD11CFA94CF0C13
:107F7000D11C0EC0853739F428D08EE10CD085E9AC
:107F80000AD08FE07ACF813511F488E018D01DD067
:107F900080E101D065CF982F8091C00085FFFCCF94
:107FA0009093C60008958091C00087FFFCCF809118
:107FB000C00084FD01C0A8958091C6000895E0E648
:107FC000F0E098E1908380830895EDDF803219F02E
:107FD00088E0F5DFFFCF84E1DECF1F93182FE3DFCA
:107FE0001150E9F7F2DF1F91089580E0E8DFEE27F6
:047FF000FF270994CA
:027FFE00040479
:00000001FF
